{
  "contracts/TBVProtocol.sol": {
    "TBVProtocol": {
      "abi": [
        {
          "inputs": [],
          "stateMutability": "nonpayable",
          "type": "constructor"
        },
        {
          "inputs": [],
          "name": "ECDSAInvalidSignature",
          "type": "error"
        },
        {
          "inputs": [
            {
              "internalType": "uint256",
              "name": "length",
              "type": "uint256"
            }
          ],
          "name": "ECDSAInvalidSignatureLength",
          "type": "error"
        },
        {
          "inputs": [
            {
              "internalType": "bytes32",
              "name": "s",
              "type": "bytes32"
            }
          ],
          "name": "ECDSAInvalidSignatureS",
          "type": "error"
        },
        {
          "inputs": [],
          "name": "InvalidShortString",
          "type": "error"
        },
        {
          "inputs": [
            {
              "internalType": "string",
              "name": "str",
              "type": "string"
            }
          ],
          "name": "StringTooLong",
          "type": "error"
        },
        {
          "anonymous": false,
          "inputs": [],
          "name": "EIP712DomainChanged",
          "type": "event"
        },
        {
          "inputs": [],
          "name": "eip712Domain",
          "outputs": [
            {
              "internalType": "bytes1",
              "name": "fields",
              "type": "bytes1"
            },
            {
              "internalType": "string",
              "name": "name",
              "type": "string"
            },
            {
              "internalType": "string",
              "name": "version",
              "type": "string"
            },
            {
              "internalType": "uint256",
              "name": "chainId",
              "type": "uint256"
            },
            {
              "internalType": "address",
              "name": "verifyingContract",
              "type": "address"
            },
            {
              "internalType": "bytes32",
              "name": "salt",
              "type": "bytes32"
            },
            {
              "internalType": "uint256[]",
              "name": "extensions",
              "type": "uint256[]"
            }
          ],
          "stateMutability": "view",
          "type": "function"
        },
        {
          "inputs": [
            {
              "internalType": "address",
              "name": "",
              "type": "address"
            },
            {
              "internalType": "uint256",
              "name": "",
              "type": "uint256"
            }
          ],
          "name": "nonces",
          "outputs": [
            {
              "internalType": "bool",
              "name": "",
              "type": "bool"
            }
          ],
          "stateMutability": "view",
          "type": "function"
        },
        {
          "inputs": [
            {
              "internalType": "bytes",
              "name": "senderSign",
              "type": "bytes"
            },
            {
              "internalType": "bytes",
              "name": "receiverSign",
              "type": "bytes"
            },
            {
              "internalType": "uint256",
              "name": "deadline",
              "type": "uint256"
            },
            {
              "components": [
                {
                  "internalType": "uint256",
                  "name": "nonce",
                  "type": "uint256"
                },
                {
                  "internalType": "address",
                  "name": "sender",
                  "type": "address"
                },
                {
                  "internalType": "address",
                  "name": "receiver",
                  "type": "address"
                },
                {
                  "internalType": "uint256",
                  "name": "amount",
                  "type": "uint256"
                },
                {
                  "internalType": "address",
                  "name": "tokenAddress",
                  "type": "address"
                },
                {
                  "internalType": "string",
                  "name": "tokenName",
                  "type": "string"
                }
              ],
              "internalType": "struct TBVProtocol.Transaction",
              "name": "_transaction",
              "type": "tuple"
            },
            {
              "internalType": "uint8",
              "name": "v",
              "type": "uint8"
            },
            {
              "internalType": "bytes32",
              "name": "r",
              "type": "bytes32"
            },
            {
              "internalType": "bytes32",
              "name": "s",
              "type": "bytes32"
            }
          ],
          "name": "transferFromWithPermit",
          "outputs": [],
          "stateMutability": "nonpayable",
          "type": "function"
        },
        {
          "inputs": [
            {
              "internalType": "bytes",
              "name": "senderSign",
              "type": "bytes"
            },
            {
              "internalType": "bytes",
              "name": "receiverSign",
              "type": "bytes"
            },
            {
              "components": [
                {
                  "internalType": "uint256",
                  "name": "nonce",
                  "type": "uint256"
                },
                {
                  "internalType": "address",
                  "name": "sender",
                  "type": "address"
                },
                {
                  "internalType": "address",
                  "name": "receiver",
                  "type": "address"
                },
                {
                  "internalType": "uint256",
                  "name": "amount",
                  "type": "uint256"
                },
                {
                  "internalType": "address",
                  "name": "tokenAddress",
                  "type": "address"
                },
                {
                  "internalType": "string",
                  "name": "tokenName",
                  "type": "string"
                }
              ],
              "internalType": "struct TBVProtocol.Transaction",
              "name": "_transaction",
              "type": "tuple"
            }
          ],
          "name": "transferNative",
          "outputs": [],
          "stateMutability": "payable",
          "type": "function"
        },
        {
          "inputs": [
            {
              "internalType": "bytes",
              "name": "senderSign",
              "type": "bytes"
            },
            {
              "internalType": "bytes",
              "name": "receiverSign",
              "type": "bytes"
            },
            {
              "components": [
                {
                  "internalType": "uint256",
                  "name": "nonce",
                  "type": "uint256"
                },
                {
                  "internalType": "address",
                  "name": "sender",
                  "type": "address"
                },
                {
                  "internalType": "address",
                  "name": "receiver",
                  "type": "address"
                },
                {
                  "internalType": "uint256",
                  "name": "amount",
                  "type": "uint256"
                },
                {
                  "internalType": "address",
                  "name": "tokenAddress",
                  "type": "address"
                },
                {
                  "internalType": "string",
                  "name": "tokenName",
                  "type": "string"
                }
              ],
              "internalType": "struct TBVProtocol.Transaction",
              "name": "_transaction",
              "type": "tuple"
            }
          ],
          "name": "transferTokens",
          "outputs": [],
          "stateMutability": "nonpayable",
          "type": "function"
        }
      ],
      "evm": {
        "bytecode": {
          "linkReferences": {},
          "object": "6101606040527f206f1c539f24e43ea4915524400e87c65ff4bfdd73cde3fe78724041b0a8c4536002557fcad609190e2f055d0688d193f50dd1d25d892fb1fbe4a3e9c7286716a90aefe36003553480156200005a57600080fd5b506040518060400160405280600b81526020017f54425650726f746f636f6c0000000000000000000000000000000000000000008152506040518060400160405280600181526020017f3100000000000000000000000000000000000000000000000000000000000000815250620000dd6000836200017d60201b90919060201c565b6101208181525050620000fb6001826200017d60201b90919060201c565b6101408181525050818051906020012060e08181525050808051906020012061010081815250504660a081815250506200013a620001d560201b60201c565b608081815250503073ffffffffffffffffffffffffffffffffffffffff1660c08173ffffffffffffffffffffffffffffffffffffffff168152505050506200082d565b6000602083511015620001a3576200019b836200023260201b60201c565b9050620001cf565b82620001b5836200029f60201b60201c565b6000019081620001c6919062000523565b5060ff60001b90505b92915050565b60007f8b73c3c69bb8fe3d512ecc4cf759cc79239f7b179b0ffacaa9a75d522b39400f60e051610100514630604051602001620002179594939291906200067b565b60405160208183030381529060405280519060200120905090565b600080829050601f815111156200028257826040517f305a27a900000000000000000000000000000000000000000000000000000000815260040162000279919062000767565b60405180910390fd5b8051816200029090620007bd565b60001c1760001b915050919050565b6000819050919050565b600081519050919050565b7f4e487b7100000000000000000000000000000000000000000000000000000000600052604160045260246000fd5b7f4e487b7100000000000000000000000000000000000000000000000000000000600052602260045260246000fd5b600060028204905060018216806200032b57607f821691505b602082108103620003415762000340620002e3565b5b50919050565b60008190508160005260206000209050919050565b60006020601f8301049050919050565b600082821b905092915050565b600060088302620003ab7fffffffffffffffffffffffffffffffffffffffffffffffffffffffffffffffff826200036c565b620003b786836200036c565b95508019841693508086168417925050509392505050565b6000819050919050565b6000819050919050565b600062000404620003fe620003f884620003cf565b620003d9565b620003cf565b9050919050565b6000819050919050565b6200042083620003e3565b620004386200042f826200040b565b84845462000379565b825550505050565b600090565b6200044f62000440565b6200045c81848462000415565b505050565b5b8181101562000484576200047860008262000445565b60018101905062000462565b5050565b601f821115620004d3576200049d8162000347565b620004a8846200035c565b81016020851015620004b8578190505b620004d0620004c7856200035c565b83018262000461565b50505b505050565b600082821c905092915050565b6000620004f860001984600802620004d8565b1980831691505092915050565b6000620005138383620004e5565b9150826002028217905092915050565b6200052e82620002a9565b67ffffffffffffffff8111156200054a5762000549620002b4565b5b62000556825462000312565b6200056382828562000488565b600060209050601f8311600181146200059b576000841562000586578287015190505b62000592858262000505565b86555062000602565b601f198416620005ab8662000347565b60005b82811015620005d557848901518255600182019150602085019450602081019050620005ae565b86831015620005f55784890151620005f1601f891682620004e5565b8355505b6001600288020188555050505b505050505050565b6000819050919050565b6200061f816200060a565b82525050565b6200063081620003cf565b82525050565b600073ffffffffffffffffffffffffffffffffffffffff82169050919050565b6000620006638262000636565b9050919050565b620006758162000656565b82525050565b600060a08201905062000692600083018862000614565b620006a1602083018762000614565b620006b0604083018662000614565b620006bf606083018562000625565b620006ce60808301846200066a565b9695505050505050565b600082825260208201905092915050565b60005b8381101562000709578082015181840152602081019050620006ec565b60008484015250505050565b6000601f19601f8301169050919050565b60006200073382620002a9565b6200073f8185620006d8565b935062000751818560208601620006e9565b6200075c8162000715565b840191505092915050565b6000602082019050818103600083015262000783818462000726565b905092915050565b600081519050919050565b6000819050602082019050919050565b6000620007b482516200060a565b80915050919050565b6000620007ca826200078b565b82620007d68462000796565b9050620007e381620007a6565b925060208210156200082657620008217fffffffffffffffffffffffffffffffffffffffffffffffffffffffffffffffff836020036008026200036c565b831692505b5050919050565b60805160a05160c05160e051610100516101205161014051612549620008886000396000611125015260006110ea015260006115bf0152600061159e01526000611251015260006112a7015260006112d001526125496000f3fe60806040526004361061004a5760003560e01c80634f117f8f1461004f578063502e1a161461007857806384b0196e146100b557806389b0a39e146100e65780638d1f5c0014610102575b600080fd5b34801561005b57600080fd5b5061007660048036038101906100719190611aa8565b61012b565b005b34801561008457600080fd5b5061009f600480360381019061009a9190611b4f565b610551565b6040516100ac9190611baa565b60405180910390f35b3480156100c157600080fd5b506100ca610580565b6040516100dd9796959493929190611d74565b60405180910390f35b61010060048036038101906100fb9190611aa8565b61062a565b005b34801561010e57600080fd5b5061012960048036038101906101249190611e5d565b6109c6565b005b6000816060015111610172576040517f08c379a000000000000000000000000000000000000000000000000000000000815260040161016990611f9f565b60405180910390fd5b600073ffffffffffffffffffffffffffffffffffffffff16816040015173ffffffffffffffffffffffffffffffffffffffff16036101e5576040517f08c379a00000000000000000000000000000000000000000000000000000000081526004016101dc9061200b565b60405180910390fd5b600073ffffffffffffffffffffffffffffffffffffffff16816020015173ffffffffffffffffffffffffffffffffffffffff1603610258576040517f08c379a000000000000000000000000000000000000000000000000000000000815260040161024f90612077565b60405180910390fd5b6000151560046000836020015173ffffffffffffffffffffffffffffffffffffffff1673ffffffffffffffffffffffffffffffffffffffff16815260200190815260200160002060008360000151815260200190815260200160002060009054906101000a900460ff16151514610304576040517f08c379a00000000000000000000000000000000000000000000000000000000081526004016102fb906120e3565b60405180910390fd5b60006103108483610e79565b9050600061031e8484610fad565b9050826020015173ffffffffffffffffffffffffffffffffffffffff168273ffffffffffffffffffffffffffffffffffffffff1614610392576040517f08c379a00000000000000000000000000000000000000000000000000000000081526004016103899061214f565b60405180910390fd5b826040015173ffffffffffffffffffffffffffffffffffffffff168173ffffffffffffffffffffffffffffffffffffffff1614610404576040517f08c379a00000000000000000000000000000000000000000000000000000000081526004016103fb906121bb565b60405180910390fd5b600160046000856020015173ffffffffffffffffffffffffffffffffffffffff1673ffffffffffffffffffffffffffffffffffffffff16815260200190815260200160002060008560000151815260200190815260200160002060006101000a81548160ff0219169083151502179055506000836080015190508073ffffffffffffffffffffffffffffffffffffffff166323b872dd8560200151866040015187606001516040518463ffffffff1660e01b81526004016104c7939291906121db565b6020604051808303816000875af11580156104e6573d6000803e3d6000fd5b505050506040513d601f19601f8201168201806040525081019061050a919061223e565b610549576040517f08c379a0000000000000000000000000000000000000000000000000000000008152600401610540906122b7565b60405180910390fd5b505050505050565b60046020528160005260406000206020528060005260406000206000915091509054906101000a900460ff1681565b6000606080600080600060606105946110e1565b61059c61111c565b46306000801b600067ffffffffffffffff8111156105bd576105bc611782565b5b6040519080825280602002602001820160405280156105eb5781602001602082028036833780820191505090505b507f0f00000000000000000000000000000000000000000000000000000000000000959493929190965096509650965096509650965090919293949596565b6000816060015111610671576040517f08c379a000000000000000000000000000000000000000000000000000000000815260040161066890611f9f565b60405180910390fd5b600073ffffffffffffffffffffffffffffffffffffffff16816040015173ffffffffffffffffffffffffffffffffffffffff16036106e4576040517f08c379a00000000000000000000000000000000000000000000000000000000081526004016106db9061200b565b60405180910390fd5b600073ffffffffffffffffffffffffffffffffffffffff16816020015173ffffffffffffffffffffffffffffffffffffffff1603610757576040517f08c379a000000000000000000000000000000000000000000000000000000000815260040161074e90612077565b60405180910390fd5b6000151560046000836020015173ffffffffffffffffffffffffffffffffffffffff1673ffffffffffffffffffffffffffffffffffffffff16815260200190815260200160002060008360000151815260200190815260200160002060009054906101000a900460ff16151514610803576040517f08c379a00000000000000000000000000000000000000000000000000000000081526004016107fa906120e3565b60405180910390fd5b600061080f8483610e79565b9050600061081d8484610fad565b9050826020015173ffffffffffffffffffffffffffffffffffffffff168273ffffffffffffffffffffffffffffffffffffffff1614610891576040517f08c379a00000000000000000000000000000000000000000000000000000000081526004016108889061214f565b60405180910390fd5b826040015173ffffffffffffffffffffffffffffffffffffffff168173ffffffffffffffffffffffffffffffffffffffff1614610903576040517f08c379a00000000000000000000000000000000000000000000000000000000081526004016108fa906121bb565b60405180910390fd5b600160046000856020015173ffffffffffffffffffffffffffffffffffffffff1673ffffffffffffffffffffffffffffffffffffffff16815260200190815260200160002060008560000151815260200190815260200160002060006101000a81548160ff021916908315150217905550826040015173ffffffffffffffffffffffffffffffffffffffff166108fc349081150290604051600060405180830381858888f193505050501580156109be573d6000803e3d6000fd5b505050505050565b6000846060015111610a0d576040517f08c379a0000000000000000000000000000000000000000000000000000000008152600401610a0490611f9f565b60405180910390fd5b600073ffffffffffffffffffffffffffffffffffffffff16846040015173ffffffffffffffffffffffffffffffffffffffff1603610a80576040517f08c379a0000000000000000000000000000000000000000000000000000000008152600401610a779061200b565b60405180910390fd5b600073ffffffffffffffffffffffffffffffffffffffff16846020015173ffffffffffffffffffffffffffffffffffffffff1603610af3576040517f08c379a0000000000000000000000000000000000000000000000000000000008152600401610aea90612077565b60405180910390fd5b6000610aff8886610e79565b90506000610b0d8887610fad565b9050856020015173ffffffffffffffffffffffffffffffffffffffff168273ffffffffffffffffffffffffffffffffffffffff1614610b81576040517f08c379a0000000000000000000000000000000000000000000000000000000008152600401610b789061214f565b60405180910390fd5b856040015173ffffffffffffffffffffffffffffffffffffffff168173ffffffffffffffffffffffffffffffffffffffff1614610bf3576040517f08c379a0000000000000000000000000000000000000000000000000000000008152600401610bea906121bb565b60405180910390fd5b6000151560046000886020015173ffffffffffffffffffffffffffffffffffffffff1673ffffffffffffffffffffffffffffffffffffffff16815260200190815260200160002060008860000151815260200190815260200160002060009054906101000a900460ff16151514610c9f576040517f08c379a0000000000000000000000000000000000000000000000000000000008152600401610c96906120e3565b60405180910390fd5b6000866080015190506000876080015190508173ffffffffffffffffffffffffffffffffffffffff1663d505accf8960200151308b606001518d8c8c8c6040518863ffffffff1660e01b8152600401610cfe97969594939291906122e6565b600060405180830381600087803b158015610d1857600080fd5b505af1158015610d2c573d6000803e3d6000fd5b505050508073ffffffffffffffffffffffffffffffffffffffff166323b872dd89602001518a604001518b606001516040518463ffffffff1660e01b8152600401610d79939291906121db565b6020604051808303816000875af1158015610d98573d6000803e3d6000fd5b505050506040513d601f19601f82011682018060405250810190610dbc919061223e565b610dfb576040517f08c379a0000000000000000000000000000000000000000000000000000000008152600401610df2906122b7565b60405180910390fd5b6001600460008a6020015173ffffffffffffffffffffffffffffffffffffffff1673ffffffffffffffffffffffffffffffffffffffff16815260200190815260200160002060008a60000151815260200190815260200160002060006101000a81548160ff0219169083151502179055505050505050505050505050565b600080826060015111610ec1576040517f08c379a0000000000000000000000000000000000000000000000000000000008152600401610eb890611f9f565b60405180910390fd5b600073ffffffffffffffffffffffffffffffffffffffff16826020015173ffffffffffffffffffffffffffffffffffffffff1603610f34576040517f08c379a0000000000000000000000000000000000000000000000000000000008152600401610f2b9061200b565b60405180910390fd5b600060025483600001518460200151856040015186606001518760a0015180519060200120604051602001610f6e96959493929190612355565b6040516020818303038152906040528051906020012090506000610f9182611157565b90506000610f9f8287611171565b905080935050505092915050565b600080826060015111610ff5576040517f08c379a0000000000000000000000000000000000000000000000000000000008152600401610fec90611f9f565b60405180910390fd5b600073ffffffffffffffffffffffffffffffffffffffff16826040015173ffffffffffffffffffffffffffffffffffffffff1603611068576040517f08c379a000000000000000000000000000000000000000000000000000000000815260040161105f9061200b565b60405180910390fd5b600060035483600001518460200151856040015186606001518760a00151805190602001206040516020016110a296959493929190612355565b60405160208183030381529060405280519060200120905060006110c582611157565b905060006110d38287611171565b905080935050505092915050565b606061111760007f000000000000000000000000000000000000000000000000000000000000000061119d90919063ffffffff16565b905090565b606061115260017f000000000000000000000000000000000000000000000000000000000000000061119d90919063ffffffff16565b905090565b600061116a61116461124d565b83611304565b9050919050565b6000806000806111818686611345565b92509250925061119182826113a1565b82935050505092915050565b606060ff60001b83146111ba576111b383611505565b9050611247565b8180546111c6906123e5565b80601f01602080910402602001604051908101604052809291908181526020018280546111f2906123e5565b801561123f5780601f106112145761010080835404028352916020019161123f565b820191906000526020600020905b81548152906001019060200180831161122257829003601f168201915b505050505090505b92915050565b60007f000000000000000000000000000000000000000000000000000000000000000073ffffffffffffffffffffffffffffffffffffffff163073ffffffffffffffffffffffffffffffffffffffff161480156112c957507f000000000000000000000000000000000000000000000000000000000000000046145b156112f6577f00000000000000000000000000000000000000000000000000000000000000009050611301565b6112fe611579565b90505b90565b60006040517f190100000000000000000000000000000000000000000000000000000000000081528360028201528260228201526042812091505092915050565b6000806000604184510361138a5760008060006020870151925060408701519150606087015160001a905061137c8882858561160f565b95509550955050505061139a565b60006002855160001b9250925092505b9250925092565b600060038111156113b5576113b4612416565b5b8260038111156113c8576113c7612416565b5b031561150157600160038111156113e2576113e1612416565b5b8260038111156113f5576113f4612416565b5b0361142c576040517ff645eedf00000000000000000000000000000000000000000000000000000000815260040160405180910390fd5b600260038111156114405761143f612416565b5b82600381111561145357611452612416565b5b03611498578060001c6040517ffce698f700000000000000000000000000000000000000000000000000000000815260040161148f9190612445565b60405180910390fd5b6003808111156114ab576114aa612416565b5b8260038111156114be576114bd612416565b5b0361150057806040517fd78bce0c0000000000000000000000000000000000000000000000000000000081526004016114f79190612460565b60405180910390fd5b5b5050565b6060600061151283611703565b90506000602067ffffffffffffffff81111561153157611530611782565b5b6040519080825280601f01601f1916602001820160405280156115635781602001600182028036833780820191505090505b5090508181528360208201528092505050919050565b60007f8b73c3c69bb8fe3d512ecc4cf759cc79239f7b179b0ffacaa9a75d522b39400f7f00000000000000000000000000000000000000000000000000000000000000007f000000000000000000000000000000000000000000000000000000000000000046306040516020016115f495949392919061247b565b60405160208183030381529060405280519060200120905090565b60008060007f7fffffffffffffffffffffffffffffff5d576e7357a4501ddfe92f46681b20a08460001c111561164f5760006003859250925092506116f9565b60006001888888886040516000815260200160405260405161167494939291906124ce565b6020604051602081039080840390855afa158015611696573d6000803e3d6000fd5b505050602060405103519050600073ffffffffffffffffffffffffffffffffffffffff168173ffffffffffffffffffffffffffffffffffffffff16036116ea57600060016000801b935093509350506116f9565b8060008060001b935093509350505b9450945094915050565b60008060ff8360001c169050601f81111561174a576040517fb3512b0c00000000000000000000000000000000000000000000000000000000815260040160405180910390fd5b80915050919050565b6000604051905090565b600080fd5b600080fd5b600080fd5b600080fd5b6000601f19601f8301169050919050565b7f4e487b7100000000000000000000000000000000000000000000000000000000600052604160045260246000fd5b6117ba82611771565b810181811067ffffffffffffffff821117156117d9576117d8611782565b5b80604052505050565b60006117ec611753565b90506117f882826117b1565b919050565b600067ffffffffffffffff82111561181857611817611782565b5b61182182611771565b9050602081019050919050565b82818337600083830152505050565b600061185061184b846117fd565b6117e2565b90508281526020810184848401111561186c5761186b61176c565b5b61187784828561182e565b509392505050565b600082601f83011261189457611893611767565b5b81356118a484826020860161183d565b91505092915050565b600080fd5b600080fd5b6000819050919050565b6118ca816118b7565b81146118d557600080fd5b50565b6000813590506118e7816118c1565b92915050565b600073ffffffffffffffffffffffffffffffffffffffff82169050919050565b6000611918826118ed565b9050919050565b6119288161190d565b811461193357600080fd5b50565b6000813590506119458161191f565b92915050565b600067ffffffffffffffff82111561196657611965611782565b5b61196f82611771565b9050602081019050919050565b600061198f61198a8461194b565b6117e2565b9050828152602081018484840111156119ab576119aa61176c565b5b6119b684828561182e565b509392505050565b600082601f8301126119d3576119d2611767565b5b81356119e384826020860161197c565b91505092915050565b600060c08284031215611a0257611a016118ad565b5b611a0c60c06117e2565b90506000611a1c848285016118d8565b6000830152506020611a3084828501611936565b6020830152506040611a4484828501611936565b6040830152506060611a58848285016118d8565b6060830152506080611a6c84828501611936565b60808301525060a082013567ffffffffffffffff811115611a9057611a8f6118b2565b5b611a9c848285016119be565b60a08301525092915050565b600080600060608486031215611ac157611ac061175d565b5b600084013567ffffffffffffffff811115611adf57611ade611762565b5b611aeb8682870161187f565b935050602084013567ffffffffffffffff811115611b0c57611b0b611762565b5b611b188682870161187f565b925050604084013567ffffffffffffffff811115611b3957611b38611762565b5b611b45868287016119ec565b9150509250925092565b60008060408385031215611b6657611b6561175d565b5b6000611b7485828601611936565b9250506020611b85858286016118d8565b9150509250929050565b60008115159050919050565b611ba481611b8f565b82525050565b6000602082019050611bbf6000830184611b9b565b92915050565b60007fff0000000000000000000000000000000000000000000000000000000000000082169050919050565b611bfa81611bc5565b82525050565b600081519050919050565b600082825260208201905092915050565b60005b83811015611c3a578082015181840152602081019050611c1f565b60008484015250505050565b6000611c5182611c00565b611c5b8185611c0b565b9350611c6b818560208601611c1c565b611c7481611771565b840191505092915050565b611c88816118b7565b82525050565b611c978161190d565b82525050565b6000819050919050565b611cb081611c9d565b82525050565b600081519050919050565b600082825260208201905092915050565b6000819050602082019050919050565b611ceb816118b7565b82525050565b6000611cfd8383611ce2565b60208301905092915050565b6000602082019050919050565b6000611d2182611cb6565b611d2b8185611cc1565b9350611d3683611cd2565b8060005b83811015611d67578151611d4e8882611cf1565b9750611d5983611d09565b925050600181019050611d3a565b5085935050505092915050565b600060e082019050611d89600083018a611bf1565b8181036020830152611d9b8189611c46565b90508181036040830152611daf8188611c46565b9050611dbe6060830187611c7f565b611dcb6080830186611c8e565b611dd860a0830185611ca7565b81810360c0830152611dea8184611d16565b905098975050505050505050565b600060ff82169050919050565b611e0e81611df8565b8114611e1957600080fd5b50565b600081359050611e2b81611e05565b92915050565b611e3a81611c9d565b8114611e4557600080fd5b50565b600081359050611e5781611e31565b92915050565b600080600080600080600060e0888a031215611e7c57611e7b61175d565b5b600088013567ffffffffffffffff811115611e9a57611e99611762565b5b611ea68a828b0161187f565b975050602088013567ffffffffffffffff811115611ec757611ec6611762565b5b611ed38a828b0161187f565b9650506040611ee48a828b016118d8565b955050606088013567ffffffffffffffff811115611f0557611f04611762565b5b611f118a828b016119ec565b9450506080611f228a828b01611e1c565b93505060a0611f338a828b01611e48565b92505060c0611f448a828b01611e48565b91505092959891949750929550565b7f416d6f756e74206d7573742062652067726561746572207468616e2030000000600082015250565b6000611f89601d83611c0b565b9150611f9482611f53565b602082019050919050565b60006020820190508181036000830152611fb881611f7c565b9050919050565b7f496e76616c696420726563656976657220616464726573730000000000000000600082015250565b6000611ff5601883611c0b565b915061200082611fbf565b602082019050919050565b6000602082019050818103600083015261202481611fe8565b9050919050565b7f496e76616c69642073656e646572206164647265737300000000000000000000600082015250565b6000612061601683611c0b565b915061206c8261202b565b602082019050919050565b6000602082019050818103600083015261209081612054565b9050919050565b7f4e6f6e636520616c726561647920757365640000000000000000000000000000600082015250565b60006120cd601283611c0b565b91506120d882612097565b602082019050919050565b600060208201905081810360008301526120fc816120c0565b9050919050565b7f496e76616c6964207369676e6174757265206f662073656e6465720000000000600082015250565b6000612139601b83611c0b565b915061214482612103565b602082019050919050565b600060208201905081810360008301526121688161212c565b9050919050565b7f496e76616c6964207369676e6174757265206f66207265636569766572000000600082015250565b60006121a5601d83611c0b565b91506121b08261216f565b602082019050919050565b600060208201905081810360008301526121d481612198565b9050919050565b60006060820190506121f06000830186611c8e565b6121fd6020830185611c8e565b61220a6040830184611c7f565b949350505050565b61221b81611b8f565b811461222657600080fd5b50565b60008151905061223881612212565b92915050565b6000602082840312156122545761225361175d565b5b600061226284828501612229565b91505092915050565b7f546f6b656e207472616e73666572206661696c65640000000000000000000000600082015250565b60006122a1601583611c0b565b91506122ac8261226b565b602082019050919050565b600060208201905081810360008301526122d081612294565b9050919050565b6122e081611df8565b82525050565b600060e0820190506122fb600083018a611c8e565b6123086020830189611c8e565b6123156040830188611c7f565b6123226060830187611c7f565b61232f60808301866122d7565b61233c60a0830185611ca7565b61234960c0830184611ca7565b98975050505050505050565b600060c08201905061236a6000830189611ca7565b6123776020830188611c7f565b6123846040830187611c8e565b6123916060830186611c8e565b61239e6080830185611c7f565b6123ab60a0830184611ca7565b979650505050505050565b7f4e487b7100000000000000000000000000000000000000000000000000000000600052602260045260246000fd5b600060028204905060018216806123fd57607f821691505b6020821081036124105761240f6123b6565b5b50919050565b7f4e487b7100000000000000000000000000000000000000000000000000000000600052602160045260246000fd5b600060208201905061245a6000830184611c7f565b92915050565b60006020820190506124756000830184611ca7565b92915050565b600060a0820190506124906000830188611ca7565b61249d6020830187611ca7565b6124aa6040830186611ca7565b6124b76060830185611c7f565b6124c46080830184611c8e565b9695505050505050565b60006080820190506124e36000830187611ca7565b6124f060208301866122d7565b6124fd6040830185611ca7565b61250a6060830184611ca7565b9594505050505056fea2646970667358221220498451c7ac95ad935877c77b833edecd980528efe8e7a29406f56300860e59af64736f6c63430008180033",
          "opcodes": "PUSH2 0x160 PUSH1 0x40 MSTORE PUSH32 0x206F1C539F24E43EA4915524400E87C65FF4BFDD73CDE3FE78724041B0A8C453 PUSH1 0x2 SSTORE PUSH32 0xCAD609190E2F055D0688D193F50DD1D25D892FB1FBE4A3E9C7286716A90AEFE3 PUSH1 0x3 SSTORE CALLVALUE DUP1 ISZERO PUSH3 0x5A JUMPI PUSH1 0x0 DUP1 REVERT JUMPDEST POP PUSH1 0x40 MLOAD DUP1 PUSH1 0x40 ADD PUSH1 0x40 MSTORE DUP1 PUSH1 0xB DUP2 MSTORE PUSH1 0x20 ADD PUSH32 0x54425650726F746F636F6C000000000000000000000000000000000000000000 DUP2 MSTORE POP PUSH1 0x40 MLOAD DUP1 PUSH1 0x40 ADD PUSH1 0x40 MSTORE DUP1 PUSH1 0x1 DUP2 MSTORE PUSH1 0x20 ADD PUSH32 0x3100000000000000000000000000000000000000000000000000000000000000 DUP2 MSTORE POP PUSH3 0xDD PUSH1 0x0 DUP4 PUSH3 0x17D PUSH1 0x20 SHL SWAP1 SWAP2 SWAP1 PUSH1 0x20 SHR JUMP JUMPDEST PUSH2 0x120 DUP2 DUP2 MSTORE POP POP PUSH3 0xFB PUSH1 0x1 DUP3 PUSH3 0x17D PUSH1 0x20 SHL SWAP1 SWAP2 SWAP1 PUSH1 0x20 SHR JUMP JUMPDEST PUSH2 0x140 DUP2 DUP2 MSTORE POP POP DUP2 DUP1 MLOAD SWAP1 PUSH1 0x20 ADD KECCAK256 PUSH1 0xE0 DUP2 DUP2 MSTORE POP POP DUP1 DUP1 MLOAD SWAP1 PUSH1 0x20 ADD KECCAK256 PUSH2 0x100 DUP2 DUP2 MSTORE POP POP CHAINID PUSH1 0xA0 DUP2 DUP2 MSTORE POP POP PUSH3 0x13A PUSH3 0x1D5 PUSH1 0x20 SHL PUSH1 0x20 SHR JUMP JUMPDEST PUSH1 0x80 DUP2 DUP2 MSTORE POP POP ADDRESS PUSH20 0xFFFFFFFFFFFFFFFFFFFFFFFFFFFFFFFFFFFFFFFF AND PUSH1 0xC0 DUP2 PUSH20 0xFFFFFFFFFFFFFFFFFFFFFFFFFFFFFFFFFFFFFFFF AND DUP2 MSTORE POP POP POP POP PUSH3 0x82D JUMP JUMPDEST PUSH1 0x0 PUSH1 0x20 DUP4 MLOAD LT ISZERO PUSH3 0x1A3 JUMPI PUSH3 0x19B DUP4 PUSH3 0x232 PUSH1 0x20 SHL PUSH1 0x20 SHR JUMP JUMPDEST SWAP1 POP PUSH3 0x1CF JUMP JUMPDEST DUP3 PUSH3 0x1B5 DUP4 PUSH3 0x29F PUSH1 0x20 SHL PUSH1 0x20 SHR JUMP JUMPDEST PUSH1 0x0 ADD SWAP1 DUP2 PUSH3 0x1C6 SWAP2 SWAP1 PUSH3 0x523 JUMP JUMPDEST POP PUSH1 0xFF PUSH1 0x0 SHL SWAP1 POP JUMPDEST SWAP3 SWAP2 POP POP JUMP JUMPDEST PUSH1 0x0 PUSH32 0x8B73C3C69BB8FE3D512ECC4CF759CC79239F7B179B0FFACAA9A75D522B39400F PUSH1 0xE0 MLOAD PUSH2 0x100 MLOAD CHAINID ADDRESS PUSH1 0x40 MLOAD PUSH1 0x20 ADD PUSH3 0x217 SWAP6 SWAP5 SWAP4 SWAP3 SWAP2 SWAP1 PUSH3 0x67B JUMP JUMPDEST PUSH1 0x40 MLOAD PUSH1 0x20 DUP2 DUP4 SUB SUB DUP2 MSTORE SWAP1 PUSH1 0x40 MSTORE DUP1 MLOAD SWAP1 PUSH1 0x20 ADD KECCAK256 SWAP1 POP SWAP1 JUMP JUMPDEST PUSH1 0x0 DUP1 DUP3 SWAP1 POP PUSH1 0x1F DUP2 MLOAD GT ISZERO PUSH3 0x282 JUMPI DUP3 PUSH1 0x40 MLOAD PUSH32 0x305A27A900000000000000000000000000000000000000000000000000000000 DUP2 MSTORE PUSH1 0x4 ADD PUSH3 0x279 SWAP2 SWAP1 PUSH3 0x767 JUMP JUMPDEST PUSH1 0x40 MLOAD DUP1 SWAP2 SUB SWAP1 REVERT JUMPDEST DUP1 MLOAD DUP2 PUSH3 0x290 SWAP1 PUSH3 0x7BD JUMP JUMPDEST PUSH1 0x0 SHR OR PUSH1 0x0 SHL SWAP2 POP POP SWAP2 SWAP1 POP JUMP JUMPDEST PUSH1 0x0 DUP2 SWAP1 POP SWAP2 SWAP1 POP JUMP JUMPDEST PUSH1 0x0 DUP2 MLOAD SWAP1 POP SWAP2 SWAP1 POP JUMP JUMPDEST PUSH32 0x4E487B7100000000000000000000000000000000000000000000000000000000 PUSH1 0x0 MSTORE PUSH1 0x41 PUSH1 0x4 MSTORE PUSH1 0x24 PUSH1 0x0 REVERT JUMPDEST PUSH32 0x4E487B7100000000000000000000000000000000000000000000000000000000 PUSH1 0x0 MSTORE PUSH1 0x22 PUSH1 0x4 MSTORE PUSH1 0x24 PUSH1 0x0 REVERT JUMPDEST PUSH1 0x0 PUSH1 0x2 DUP3 DIV SWAP1 POP PUSH1 0x1 DUP3 AND DUP1 PUSH3 0x32B JUMPI PUSH1 0x7F DUP3 AND SWAP2 POP JUMPDEST PUSH1 0x20 DUP3 LT DUP2 SUB PUSH3 0x341 JUMPI PUSH3 0x340 PUSH3 0x2E3 JUMP JUMPDEST JUMPDEST POP SWAP2 SWAP1 POP JUMP JUMPDEST PUSH1 0x0 DUP2 SWAP1 POP DUP2 PUSH1 0x0 MSTORE PUSH1 0x20 PUSH1 0x0 KECCAK256 SWAP1 POP SWAP2 SWAP1 POP JUMP JUMPDEST PUSH1 0x0 PUSH1 0x20 PUSH1 0x1F DUP4 ADD DIV SWAP1 POP SWAP2 SWAP1 POP JUMP JUMPDEST PUSH1 0x0 DUP3 DUP3 SHL SWAP1 POP SWAP3 SWAP2 POP POP JUMP JUMPDEST PUSH1 0x0 PUSH1 0x8 DUP4 MUL PUSH3 0x3AB PUSH32 0xFFFFFFFFFFFFFFFFFFFFFFFFFFFFFFFFFFFFFFFFFFFFFFFFFFFFFFFFFFFFFFFF DUP3 PUSH3 0x36C JUMP JUMPDEST PUSH3 0x3B7 DUP7 DUP4 PUSH3 0x36C JUMP JUMPDEST SWAP6 POP DUP1 NOT DUP5 AND SWAP4 POP DUP1 DUP7 AND DUP5 OR SWAP3 POP POP POP SWAP4 SWAP3 POP POP POP JUMP JUMPDEST PUSH1 0x0 DUP2 SWAP1 POP SWAP2 SWAP1 POP JUMP JUMPDEST PUSH1 0x0 DUP2 SWAP1 POP SWAP2 SWAP1 POP JUMP JUMPDEST PUSH1 0x0 PUSH3 0x404 PUSH3 0x3FE PUSH3 0x3F8 DUP5 PUSH3 0x3CF JUMP JUMPDEST PUSH3 0x3D9 JUMP JUMPDEST PUSH3 0x3CF JUMP JUMPDEST SWAP1 POP SWAP2 SWAP1 POP JUMP JUMPDEST PUSH1 0x0 DUP2 SWAP1 POP SWAP2 SWAP1 POP JUMP JUMPDEST PUSH3 0x420 DUP4 PUSH3 0x3E3 JUMP JUMPDEST PUSH3 0x438 PUSH3 0x42F DUP3 PUSH3 0x40B JUMP JUMPDEST DUP5 DUP5 SLOAD PUSH3 0x379 JUMP JUMPDEST DUP3 SSTORE POP POP POP POP JUMP JUMPDEST PUSH1 0x0 SWAP1 JUMP JUMPDEST PUSH3 0x44F PUSH3 0x440 JUMP JUMPDEST PUSH3 0x45C DUP2 DUP5 DUP5 PUSH3 0x415 JUMP JUMPDEST POP POP POP JUMP JUMPDEST JUMPDEST DUP2 DUP2 LT ISZERO PUSH3 0x484 JUMPI PUSH3 0x478 PUSH1 0x0 DUP3 PUSH3 0x445 JUMP JUMPDEST PUSH1 0x1 DUP2 ADD SWAP1 POP PUSH3 0x462 JUMP JUMPDEST POP POP JUMP JUMPDEST PUSH1 0x1F DUP3 GT ISZERO PUSH3 0x4D3 JUMPI PUSH3 0x49D DUP2 PUSH3 0x347 JUMP JUMPDEST PUSH3 0x4A8 DUP5 PUSH3 0x35C JUMP JUMPDEST DUP2 ADD PUSH1 0x20 DUP6 LT ISZERO PUSH3 0x4B8 JUMPI DUP2 SWAP1 POP JUMPDEST PUSH3 0x4D0 PUSH3 0x4C7 DUP6 PUSH3 0x35C JUMP JUMPDEST DUP4 ADD DUP3 PUSH3 0x461 JUMP JUMPDEST POP POP JUMPDEST POP POP POP JUMP JUMPDEST PUSH1 0x0 DUP3 DUP3 SHR SWAP1 POP SWAP3 SWAP2 POP POP JUMP JUMPDEST PUSH1 0x0 PUSH3 0x4F8 PUSH1 0x0 NOT DUP5 PUSH1 0x8 MUL PUSH3 0x4D8 JUMP JUMPDEST NOT DUP1 DUP4 AND SWAP2 POP POP SWAP3 SWAP2 POP POP JUMP JUMPDEST PUSH1 0x0 PUSH3 0x513 DUP4 DUP4 PUSH3 0x4E5 JUMP JUMPDEST SWAP2 POP DUP3 PUSH1 0x2 MUL DUP3 OR SWAP1 POP SWAP3 SWAP2 POP POP JUMP JUMPDEST PUSH3 0x52E DUP3 PUSH3 0x2A9 JUMP JUMPDEST PUSH8 0xFFFFFFFFFFFFFFFF DUP2 GT ISZERO PUSH3 0x54A JUMPI PUSH3 0x549 PUSH3 0x2B4 JUMP JUMPDEST JUMPDEST PUSH3 0x556 DUP3 SLOAD PUSH3 0x312 JUMP JUMPDEST PUSH3 0x563 DUP3 DUP3 DUP6 PUSH3 0x488 JUMP JUMPDEST PUSH1 0x0 PUSH1 0x20 SWAP1 POP PUSH1 0x1F DUP4 GT PUSH1 0x1 DUP2 EQ PUSH3 0x59B JUMPI PUSH1 0x0 DUP5 ISZERO PUSH3 0x586 JUMPI DUP3 DUP8 ADD MLOAD SWAP1 POP JUMPDEST PUSH3 0x592 DUP6 DUP3 PUSH3 0x505 JUMP JUMPDEST DUP7 SSTORE POP PUSH3 0x602 JUMP JUMPDEST PUSH1 0x1F NOT DUP5 AND PUSH3 0x5AB DUP7 PUSH3 0x347 JUMP JUMPDEST PUSH1 0x0 JUMPDEST DUP3 DUP2 LT ISZERO PUSH3 0x5D5 JUMPI DUP5 DUP10 ADD MLOAD DUP3 SSTORE PUSH1 0x1 DUP3 ADD SWAP2 POP PUSH1 0x20 DUP6 ADD SWAP5 POP PUSH1 0x20 DUP2 ADD SWAP1 POP PUSH3 0x5AE JUMP JUMPDEST DUP7 DUP4 LT ISZERO PUSH3 0x5F5 JUMPI DUP5 DUP10 ADD MLOAD PUSH3 0x5F1 PUSH1 0x1F DUP10 AND DUP3 PUSH3 0x4E5 JUMP JUMPDEST DUP4 SSTORE POP JUMPDEST PUSH1 0x1 PUSH1 0x2 DUP9 MUL ADD DUP9 SSTORE POP POP POP JUMPDEST POP POP POP POP POP POP JUMP JUMPDEST PUSH1 0x0 DUP2 SWAP1 POP SWAP2 SWAP1 POP JUMP JUMPDEST PUSH3 0x61F DUP2 PUSH3 0x60A JUMP JUMPDEST DUP3 MSTORE POP POP JUMP JUMPDEST PUSH3 0x630 DUP2 PUSH3 0x3CF JUMP JUMPDEST DUP3 MSTORE POP POP JUMP JUMPDEST PUSH1 0x0 PUSH20 0xFFFFFFFFFFFFFFFFFFFFFFFFFFFFFFFFFFFFFFFF DUP3 AND SWAP1 POP SWAP2 SWAP1 POP JUMP JUMPDEST PUSH1 0x0 PUSH3 0x663 DUP3 PUSH3 0x636 JUMP JUMPDEST SWAP1 POP SWAP2 SWAP1 POP JUMP JUMPDEST PUSH3 0x675 DUP2 PUSH3 0x656 JUMP JUMPDEST DUP3 MSTORE POP POP JUMP JUMPDEST PUSH1 0x0 PUSH1 0xA0 DUP3 ADD SWAP1 POP PUSH3 0x692 PUSH1 0x0 DUP4 ADD DUP9 PUSH3 0x614 JUMP JUMPDEST PUSH3 0x6A1 PUSH1 0x20 DUP4 ADD DUP8 PUSH3 0x614 JUMP JUMPDEST PUSH3 0x6B0 PUSH1 0x40 DUP4 ADD DUP7 PUSH3 0x614 JUMP JUMPDEST PUSH3 0x6BF PUSH1 0x60 DUP4 ADD DUP6 PUSH3 0x625 JUMP JUMPDEST PUSH3 0x6CE PUSH1 0x80 DUP4 ADD DUP5 PUSH3 0x66A JUMP JUMPDEST SWAP7 SWAP6 POP POP POP POP POP POP JUMP JUMPDEST PUSH1 0x0 DUP3 DUP3 MSTORE PUSH1 0x20 DUP3 ADD SWAP1 POP SWAP3 SWAP2 POP POP JUMP JUMPDEST PUSH1 0x0 JUMPDEST DUP4 DUP2 LT ISZERO PUSH3 0x709 JUMPI DUP1 DUP3 ADD MLOAD DUP2 DUP5 ADD MSTORE PUSH1 0x20 DUP2 ADD SWAP1 POP PUSH3 0x6EC JUMP JUMPDEST PUSH1 0x0 DUP5 DUP5 ADD MSTORE POP POP POP POP JUMP JUMPDEST PUSH1 0x0 PUSH1 0x1F NOT PUSH1 0x1F DUP4 ADD AND SWAP1 POP SWAP2 SWAP1 POP JUMP JUMPDEST PUSH1 0x0 PUSH3 0x733 DUP3 PUSH3 0x2A9 JUMP JUMPDEST PUSH3 0x73F DUP2 DUP6 PUSH3 0x6D8 JUMP JUMPDEST SWAP4 POP PUSH3 0x751 DUP2 DUP6 PUSH1 0x20 DUP7 ADD PUSH3 0x6E9 JUMP JUMPDEST PUSH3 0x75C DUP2 PUSH3 0x715 JUMP JUMPDEST DUP5 ADD SWAP2 POP POP SWAP3 SWAP2 POP POP JUMP JUMPDEST PUSH1 0x0 PUSH1 0x20 DUP3 ADD SWAP1 POP DUP2 DUP2 SUB PUSH1 0x0 DUP4 ADD MSTORE PUSH3 0x783 DUP2 DUP5 PUSH3 0x726 JUMP JUMPDEST SWAP1 POP SWAP3 SWAP2 POP POP JUMP JUMPDEST PUSH1 0x0 DUP2 MLOAD SWAP1 POP SWAP2 SWAP1 POP JUMP JUMPDEST PUSH1 0x0 DUP2 SWAP1 POP PUSH1 0x20 DUP3 ADD SWAP1 POP SWAP2 SWAP1 POP JUMP JUMPDEST PUSH1 0x0 PUSH3 0x7B4 DUP3 MLOAD PUSH3 0x60A JUMP JUMPDEST DUP1 SWAP2 POP POP SWAP2 SWAP1 POP JUMP JUMPDEST PUSH1 0x0 PUSH3 0x7CA DUP3 PUSH3 0x78B JUMP JUMPDEST DUP3 PUSH3 0x7D6 DUP5 PUSH3 0x796 JUMP JUMPDEST SWAP1 POP PUSH3 0x7E3 DUP2 PUSH3 0x7A6 JUMP JUMPDEST SWAP3 POP PUSH1 0x20 DUP3 LT ISZERO PUSH3 0x826 JUMPI PUSH3 0x821 PUSH32 0xFFFFFFFFFFFFFFFFFFFFFFFFFFFFFFFFFFFFFFFFFFFFFFFFFFFFFFFFFFFFFFFF DUP4 PUSH1 0x20 SUB PUSH1 0x8 MUL PUSH3 0x36C JUMP JUMPDEST DUP4 AND SWAP3 POP JUMPDEST POP POP SWAP2 SWAP1 POP JUMP JUMPDEST PUSH1 0x80 MLOAD PUSH1 0xA0 MLOAD PUSH1 0xC0 MLOAD PUSH1 0xE0 MLOAD PUSH2 0x100 MLOAD PUSH2 0x120 MLOAD PUSH2 0x140 MLOAD PUSH2 0x2549 PUSH3 0x888 PUSH1 0x0 CODECOPY PUSH1 0x0 PUSH2 0x1125 ADD MSTORE PUSH1 0x0 PUSH2 0x10EA ADD MSTORE PUSH1 0x0 PUSH2 0x15BF ADD MSTORE PUSH1 0x0 PUSH2 0x159E ADD MSTORE PUSH1 0x0 PUSH2 0x1251 ADD MSTORE PUSH1 0x0 PUSH2 0x12A7 ADD MSTORE PUSH1 0x0 PUSH2 0x12D0 ADD MSTORE PUSH2 0x2549 PUSH1 0x0 RETURN INVALID PUSH1 0x80 PUSH1 0x40 MSTORE PUSH1 0x4 CALLDATASIZE LT PUSH2 0x4A JUMPI PUSH1 0x0 CALLDATALOAD PUSH1 0xE0 SHR DUP1 PUSH4 0x4F117F8F EQ PUSH2 0x4F JUMPI DUP1 PUSH4 0x502E1A16 EQ PUSH2 0x78 JUMPI DUP1 PUSH4 0x84B0196E EQ PUSH2 0xB5 JUMPI DUP1 PUSH4 0x89B0A39E EQ PUSH2 0xE6 JUMPI DUP1 PUSH4 0x8D1F5C00 EQ PUSH2 0x102 JUMPI JUMPDEST PUSH1 0x0 DUP1 REVERT JUMPDEST CALLVALUE DUP1 ISZERO PUSH2 0x5B JUMPI PUSH1 0x0 DUP1 REVERT JUMPDEST POP PUSH2 0x76 PUSH1 0x4 DUP1 CALLDATASIZE SUB DUP2 ADD SWAP1 PUSH2 0x71 SWAP2 SWAP1 PUSH2 0x1AA8 JUMP JUMPDEST PUSH2 0x12B JUMP JUMPDEST STOP JUMPDEST CALLVALUE DUP1 ISZERO PUSH2 0x84 JUMPI PUSH1 0x0 DUP1 REVERT JUMPDEST POP PUSH2 0x9F PUSH1 0x4 DUP1 CALLDATASIZE SUB DUP2 ADD SWAP1 PUSH2 0x9A SWAP2 SWAP1 PUSH2 0x1B4F JUMP JUMPDEST PUSH2 0x551 JUMP JUMPDEST PUSH1 0x40 MLOAD PUSH2 0xAC SWAP2 SWAP1 PUSH2 0x1BAA JUMP JUMPDEST PUSH1 0x40 MLOAD DUP1 SWAP2 SUB SWAP1 RETURN JUMPDEST CALLVALUE DUP1 ISZERO PUSH2 0xC1 JUMPI PUSH1 0x0 DUP1 REVERT JUMPDEST POP PUSH2 0xCA PUSH2 0x580 JUMP JUMPDEST PUSH1 0x40 MLOAD PUSH2 0xDD SWAP8 SWAP7 SWAP6 SWAP5 SWAP4 SWAP3 SWAP2 SWAP1 PUSH2 0x1D74 JUMP JUMPDEST PUSH1 0x40 MLOAD DUP1 SWAP2 SUB SWAP1 RETURN JUMPDEST PUSH2 0x100 PUSH1 0x4 DUP1 CALLDATASIZE SUB DUP2 ADD SWAP1 PUSH2 0xFB SWAP2 SWAP1 PUSH2 0x1AA8 JUMP JUMPDEST PUSH2 0x62A JUMP JUMPDEST STOP JUMPDEST CALLVALUE DUP1 ISZERO PUSH2 0x10E JUMPI PUSH1 0x0 DUP1 REVERT JUMPDEST POP PUSH2 0x129 PUSH1 0x4 DUP1 CALLDATASIZE SUB DUP2 ADD SWAP1 PUSH2 0x124 SWAP2 SWAP1 PUSH2 0x1E5D JUMP JUMPDEST PUSH2 0x9C6 JUMP JUMPDEST STOP JUMPDEST PUSH1 0x0 DUP2 PUSH1 0x60 ADD MLOAD GT PUSH2 0x172 JUMPI PUSH1 0x40 MLOAD PUSH32 0x8C379A000000000000000000000000000000000000000000000000000000000 DUP2 MSTORE PUSH1 0x4 ADD PUSH2 0x169 SWAP1 PUSH2 0x1F9F JUMP JUMPDEST PUSH1 0x40 MLOAD DUP1 SWAP2 SUB SWAP1 REVERT JUMPDEST PUSH1 0x0 PUSH20 0xFFFFFFFFFFFFFFFFFFFFFFFFFFFFFFFFFFFFFFFF AND DUP2 PUSH1 0x40 ADD MLOAD PUSH20 0xFFFFFFFFFFFFFFFFFFFFFFFFFFFFFFFFFFFFFFFF AND SUB PUSH2 0x1E5 JUMPI PUSH1 0x40 MLOAD PUSH32 0x8C379A000000000000000000000000000000000000000000000000000000000 DUP2 MSTORE PUSH1 0x4 ADD PUSH2 0x1DC SWAP1 PUSH2 0x200B JUMP JUMPDEST PUSH1 0x40 MLOAD DUP1 SWAP2 SUB SWAP1 REVERT JUMPDEST PUSH1 0x0 PUSH20 0xFFFFFFFFFFFFFFFFFFFFFFFFFFFFFFFFFFFFFFFF AND DUP2 PUSH1 0x20 ADD MLOAD PUSH20 0xFFFFFFFFFFFFFFFFFFFFFFFFFFFFFFFFFFFFFFFF AND SUB PUSH2 0x258 JUMPI PUSH1 0x40 MLOAD PUSH32 0x8C379A000000000000000000000000000000000000000000000000000000000 DUP2 MSTORE PUSH1 0x4 ADD PUSH2 0x24F SWAP1 PUSH2 0x2077 JUMP JUMPDEST PUSH1 0x40 MLOAD DUP1 SWAP2 SUB SWAP1 REVERT JUMPDEST PUSH1 0x0 ISZERO ISZERO PUSH1 0x4 PUSH1 0x0 DUP4 PUSH1 0x20 ADD MLOAD PUSH20 0xFFFFFFFFFFFFFFFFFFFFFFFFFFFFFFFFFFFFFFFF AND PUSH20 0xFFFFFFFFFFFFFFFFFFFFFFFFFFFFFFFFFFFFFFFF AND DUP2 MSTORE PUSH1 0x20 ADD SWAP1 DUP2 MSTORE PUSH1 0x20 ADD PUSH1 0x0 KECCAK256 PUSH1 0x0 DUP4 PUSH1 0x0 ADD MLOAD DUP2 MSTORE PUSH1 0x20 ADD SWAP1 DUP2 MSTORE PUSH1 0x20 ADD PUSH1 0x0 KECCAK256 PUSH1 0x0 SWAP1 SLOAD SWAP1 PUSH2 0x100 EXP SWAP1 DIV PUSH1 0xFF AND ISZERO ISZERO EQ PUSH2 0x304 JUMPI PUSH1 0x40 MLOAD PUSH32 0x8C379A000000000000000000000000000000000000000000000000000000000 DUP2 MSTORE PUSH1 0x4 ADD PUSH2 0x2FB SWAP1 PUSH2 0x20E3 JUMP JUMPDEST PUSH1 0x40 MLOAD DUP1 SWAP2 SUB SWAP1 REVERT JUMPDEST PUSH1 0x0 PUSH2 0x310 DUP5 DUP4 PUSH2 0xE79 JUMP JUMPDEST SWAP1 POP PUSH1 0x0 PUSH2 0x31E DUP5 DUP5 PUSH2 0xFAD JUMP JUMPDEST SWAP1 POP DUP3 PUSH1 0x20 ADD MLOAD PUSH20 0xFFFFFFFFFFFFFFFFFFFFFFFFFFFFFFFFFFFFFFFF AND DUP3 PUSH20 0xFFFFFFFFFFFFFFFFFFFFFFFFFFFFFFFFFFFFFFFF AND EQ PUSH2 0x392 JUMPI PUSH1 0x40 MLOAD PUSH32 0x8C379A000000000000000000000000000000000000000000000000000000000 DUP2 MSTORE PUSH1 0x4 ADD PUSH2 0x389 SWAP1 PUSH2 0x214F JUMP JUMPDEST PUSH1 0x40 MLOAD DUP1 SWAP2 SUB SWAP1 REVERT JUMPDEST DUP3 PUSH1 0x40 ADD MLOAD PUSH20 0xFFFFFFFFFFFFFFFFFFFFFFFFFFFFFFFFFFFFFFFF AND DUP2 PUSH20 0xFFFFFFFFFFFFFFFFFFFFFFFFFFFFFFFFFFFFFFFF AND EQ PUSH2 0x404 JUMPI PUSH1 0x40 MLOAD PUSH32 0x8C379A000000000000000000000000000000000000000000000000000000000 DUP2 MSTORE PUSH1 0x4 ADD PUSH2 0x3FB SWAP1 PUSH2 0x21BB JUMP JUMPDEST PUSH1 0x40 MLOAD DUP1 SWAP2 SUB SWAP1 REVERT JUMPDEST PUSH1 0x1 PUSH1 0x4 PUSH1 0x0 DUP6 PUSH1 0x20 ADD MLOAD PUSH20 0xFFFFFFFFFFFFFFFFFFFFFFFFFFFFFFFFFFFFFFFF AND PUSH20 0xFFFFFFFFFFFFFFFFFFFFFFFFFFFFFFFFFFFFFFFF AND DUP2 MSTORE PUSH1 0x20 ADD SWAP1 DUP2 MSTORE PUSH1 0x20 ADD PUSH1 0x0 KECCAK256 PUSH1 0x0 DUP6 PUSH1 0x0 ADD MLOAD DUP2 MSTORE PUSH1 0x20 ADD SWAP1 DUP2 MSTORE PUSH1 0x20 ADD PUSH1 0x0 KECCAK256 PUSH1 0x0 PUSH2 0x100 EXP DUP2 SLOAD DUP2 PUSH1 0xFF MUL NOT AND SWAP1 DUP4 ISZERO ISZERO MUL OR SWAP1 SSTORE POP PUSH1 0x0 DUP4 PUSH1 0x80 ADD MLOAD SWAP1 POP DUP1 PUSH20 0xFFFFFFFFFFFFFFFFFFFFFFFFFFFFFFFFFFFFFFFF AND PUSH4 0x23B872DD DUP6 PUSH1 0x20 ADD MLOAD DUP7 PUSH1 0x40 ADD MLOAD DUP8 PUSH1 0x60 ADD MLOAD PUSH1 0x40 MLOAD DUP5 PUSH4 0xFFFFFFFF AND PUSH1 0xE0 SHL DUP2 MSTORE PUSH1 0x4 ADD PUSH2 0x4C7 SWAP4 SWAP3 SWAP2 SWAP1 PUSH2 0x21DB JUMP JUMPDEST PUSH1 0x20 PUSH1 0x40 MLOAD DUP1 DUP4 SUB DUP2 PUSH1 0x0 DUP8 GAS CALL ISZERO DUP1 ISZERO PUSH2 0x4E6 JUMPI RETURNDATASIZE PUSH1 0x0 DUP1 RETURNDATACOPY RETURNDATASIZE PUSH1 0x0 REVERT JUMPDEST POP POP POP POP PUSH1 0x40 MLOAD RETURNDATASIZE PUSH1 0x1F NOT PUSH1 0x1F DUP3 ADD AND DUP3 ADD DUP1 PUSH1 0x40 MSTORE POP DUP2 ADD SWAP1 PUSH2 0x50A SWAP2 SWAP1 PUSH2 0x223E JUMP JUMPDEST PUSH2 0x549 JUMPI PUSH1 0x40 MLOAD PUSH32 0x8C379A000000000000000000000000000000000000000000000000000000000 DUP2 MSTORE PUSH1 0x4 ADD PUSH2 0x540 SWAP1 PUSH2 0x22B7 JUMP JUMPDEST PUSH1 0x40 MLOAD DUP1 SWAP2 SUB SWAP1 REVERT JUMPDEST POP POP POP POP POP POP JUMP JUMPDEST PUSH1 0x4 PUSH1 0x20 MSTORE DUP2 PUSH1 0x0 MSTORE PUSH1 0x40 PUSH1 0x0 KECCAK256 PUSH1 0x20 MSTORE DUP1 PUSH1 0x0 MSTORE PUSH1 0x40 PUSH1 0x0 KECCAK256 PUSH1 0x0 SWAP2 POP SWAP2 POP SWAP1 SLOAD SWAP1 PUSH2 0x100 EXP SWAP1 DIV PUSH1 0xFF AND DUP2 JUMP JUMPDEST PUSH1 0x0 PUSH1 0x60 DUP1 PUSH1 0x0 DUP1 PUSH1 0x0 PUSH1 0x60 PUSH2 0x594 PUSH2 0x10E1 JUMP JUMPDEST PUSH2 0x59C PUSH2 0x111C JUMP JUMPDEST CHAINID ADDRESS PUSH1 0x0 DUP1 SHL PUSH1 0x0 PUSH8 0xFFFFFFFFFFFFFFFF DUP2 GT ISZERO PUSH2 0x5BD JUMPI PUSH2 0x5BC PUSH2 0x1782 JUMP JUMPDEST JUMPDEST PUSH1 0x40 MLOAD SWAP1 DUP1 DUP3 MSTORE DUP1 PUSH1 0x20 MUL PUSH1 0x20 ADD DUP3 ADD PUSH1 0x40 MSTORE DUP1 ISZERO PUSH2 0x5EB JUMPI DUP2 PUSH1 0x20 ADD PUSH1 0x20 DUP3 MUL DUP1 CALLDATASIZE DUP4 CALLDATACOPY DUP1 DUP3 ADD SWAP2 POP POP SWAP1 POP JUMPDEST POP PUSH32 0xF00000000000000000000000000000000000000000000000000000000000000 SWAP6 SWAP5 SWAP4 SWAP3 SWAP2 SWAP1 SWAP7 POP SWAP7 POP SWAP7 POP SWAP7 POP SWAP7 POP SWAP7 POP SWAP7 POP SWAP1 SWAP2 SWAP3 SWAP4 SWAP5 SWAP6 SWAP7 JUMP JUMPDEST PUSH1 0x0 DUP2 PUSH1 0x60 ADD MLOAD GT PUSH2 0x671 JUMPI PUSH1 0x40 MLOAD PUSH32 0x8C379A000000000000000000000000000000000000000000000000000000000 DUP2 MSTORE PUSH1 0x4 ADD PUSH2 0x668 SWAP1 PUSH2 0x1F9F JUMP JUMPDEST PUSH1 0x40 MLOAD DUP1 SWAP2 SUB SWAP1 REVERT JUMPDEST PUSH1 0x0 PUSH20 0xFFFFFFFFFFFFFFFFFFFFFFFFFFFFFFFFFFFFFFFF AND DUP2 PUSH1 0x40 ADD MLOAD PUSH20 0xFFFFFFFFFFFFFFFFFFFFFFFFFFFFFFFFFFFFFFFF AND SUB PUSH2 0x6E4 JUMPI PUSH1 0x40 MLOAD PUSH32 0x8C379A000000000000000000000000000000000000000000000000000000000 DUP2 MSTORE PUSH1 0x4 ADD PUSH2 0x6DB SWAP1 PUSH2 0x200B JUMP JUMPDEST PUSH1 0x40 MLOAD DUP1 SWAP2 SUB SWAP1 REVERT JUMPDEST PUSH1 0x0 PUSH20 0xFFFFFFFFFFFFFFFFFFFFFFFFFFFFFFFFFFFFFFFF AND DUP2 PUSH1 0x20 ADD MLOAD PUSH20 0xFFFFFFFFFFFFFFFFFFFFFFFFFFFFFFFFFFFFFFFF AND SUB PUSH2 0x757 JUMPI PUSH1 0x40 MLOAD PUSH32 0x8C379A000000000000000000000000000000000000000000000000000000000 DUP2 MSTORE PUSH1 0x4 ADD PUSH2 0x74E SWAP1 PUSH2 0x2077 JUMP JUMPDEST PUSH1 0x40 MLOAD DUP1 SWAP2 SUB SWAP1 REVERT JUMPDEST PUSH1 0x0 ISZERO ISZERO PUSH1 0x4 PUSH1 0x0 DUP4 PUSH1 0x20 ADD MLOAD PUSH20 0xFFFFFFFFFFFFFFFFFFFFFFFFFFFFFFFFFFFFFFFF AND PUSH20 0xFFFFFFFFFFFFFFFFFFFFFFFFFFFFFFFFFFFFFFFF AND DUP2 MSTORE PUSH1 0x20 ADD SWAP1 DUP2 MSTORE PUSH1 0x20 ADD PUSH1 0x0 KECCAK256 PUSH1 0x0 DUP4 PUSH1 0x0 ADD MLOAD DUP2 MSTORE PUSH1 0x20 ADD SWAP1 DUP2 MSTORE PUSH1 0x20 ADD PUSH1 0x0 KECCAK256 PUSH1 0x0 SWAP1 SLOAD SWAP1 PUSH2 0x100 EXP SWAP1 DIV PUSH1 0xFF AND ISZERO ISZERO EQ PUSH2 0x803 JUMPI PUSH1 0x40 MLOAD PUSH32 0x8C379A000000000000000000000000000000000000000000000000000000000 DUP2 MSTORE PUSH1 0x4 ADD PUSH2 0x7FA SWAP1 PUSH2 0x20E3 JUMP JUMPDEST PUSH1 0x40 MLOAD DUP1 SWAP2 SUB SWAP1 REVERT JUMPDEST PUSH1 0x0 PUSH2 0x80F DUP5 DUP4 PUSH2 0xE79 JUMP JUMPDEST SWAP1 POP PUSH1 0x0 PUSH2 0x81D DUP5 DUP5 PUSH2 0xFAD JUMP JUMPDEST SWAP1 POP DUP3 PUSH1 0x20 ADD MLOAD PUSH20 0xFFFFFFFFFFFFFFFFFFFFFFFFFFFFFFFFFFFFFFFF AND DUP3 PUSH20 0xFFFFFFFFFFFFFFFFFFFFFFFFFFFFFFFFFFFFFFFF AND EQ PUSH2 0x891 JUMPI PUSH1 0x40 MLOAD PUSH32 0x8C379A000000000000000000000000000000000000000000000000000000000 DUP2 MSTORE PUSH1 0x4 ADD PUSH2 0x888 SWAP1 PUSH2 0x214F JUMP JUMPDEST PUSH1 0x40 MLOAD DUP1 SWAP2 SUB SWAP1 REVERT JUMPDEST DUP3 PUSH1 0x40 ADD MLOAD PUSH20 0xFFFFFFFFFFFFFFFFFFFFFFFFFFFFFFFFFFFFFFFF AND DUP2 PUSH20 0xFFFFFFFFFFFFFFFFFFFFFFFFFFFFFFFFFFFFFFFF AND EQ PUSH2 0x903 JUMPI PUSH1 0x40 MLOAD PUSH32 0x8C379A000000000000000000000000000000000000000000000000000000000 DUP2 MSTORE PUSH1 0x4 ADD PUSH2 0x8FA SWAP1 PUSH2 0x21BB JUMP JUMPDEST PUSH1 0x40 MLOAD DUP1 SWAP2 SUB SWAP1 REVERT JUMPDEST PUSH1 0x1 PUSH1 0x4 PUSH1 0x0 DUP6 PUSH1 0x20 ADD MLOAD PUSH20 0xFFFFFFFFFFFFFFFFFFFFFFFFFFFFFFFFFFFFFFFF AND PUSH20 0xFFFFFFFFFFFFFFFFFFFFFFFFFFFFFFFFFFFFFFFF AND DUP2 MSTORE PUSH1 0x20 ADD SWAP1 DUP2 MSTORE PUSH1 0x20 ADD PUSH1 0x0 KECCAK256 PUSH1 0x0 DUP6 PUSH1 0x0 ADD MLOAD DUP2 MSTORE PUSH1 0x20 ADD SWAP1 DUP2 MSTORE PUSH1 0x20 ADD PUSH1 0x0 KECCAK256 PUSH1 0x0 PUSH2 0x100 EXP DUP2 SLOAD DUP2 PUSH1 0xFF MUL NOT AND SWAP1 DUP4 ISZERO ISZERO MUL OR SWAP1 SSTORE POP DUP3 PUSH1 0x40 ADD MLOAD PUSH20 0xFFFFFFFFFFFFFFFFFFFFFFFFFFFFFFFFFFFFFFFF AND PUSH2 0x8FC CALLVALUE SWAP1 DUP2 ISZERO MUL SWAP1 PUSH1 0x40 MLOAD PUSH1 0x0 PUSH1 0x40 MLOAD DUP1 DUP4 SUB DUP2 DUP6 DUP9 DUP9 CALL SWAP4 POP POP POP POP ISZERO DUP1 ISZERO PUSH2 0x9BE JUMPI RETURNDATASIZE PUSH1 0x0 DUP1 RETURNDATACOPY RETURNDATASIZE PUSH1 0x0 REVERT JUMPDEST POP POP POP POP POP POP JUMP JUMPDEST PUSH1 0x0 DUP5 PUSH1 0x60 ADD MLOAD GT PUSH2 0xA0D JUMPI PUSH1 0x40 MLOAD PUSH32 0x8C379A000000000000000000000000000000000000000000000000000000000 DUP2 MSTORE PUSH1 0x4 ADD PUSH2 0xA04 SWAP1 PUSH2 0x1F9F JUMP JUMPDEST PUSH1 0x40 MLOAD DUP1 SWAP2 SUB SWAP1 REVERT JUMPDEST PUSH1 0x0 PUSH20 0xFFFFFFFFFFFFFFFFFFFFFFFFFFFFFFFFFFFFFFFF AND DUP5 PUSH1 0x40 ADD MLOAD PUSH20 0xFFFFFFFFFFFFFFFFFFFFFFFFFFFFFFFFFFFFFFFF AND SUB PUSH2 0xA80 JUMPI PUSH1 0x40 MLOAD PUSH32 0x8C379A000000000000000000000000000000000000000000000000000000000 DUP2 MSTORE PUSH1 0x4 ADD PUSH2 0xA77 SWAP1 PUSH2 0x200B JUMP JUMPDEST PUSH1 0x40 MLOAD DUP1 SWAP2 SUB SWAP1 REVERT JUMPDEST PUSH1 0x0 PUSH20 0xFFFFFFFFFFFFFFFFFFFFFFFFFFFFFFFFFFFFFFFF AND DUP5 PUSH1 0x20 ADD MLOAD PUSH20 0xFFFFFFFFFFFFFFFFFFFFFFFFFFFFFFFFFFFFFFFF AND SUB PUSH2 0xAF3 JUMPI PUSH1 0x40 MLOAD PUSH32 0x8C379A000000000000000000000000000000000000000000000000000000000 DUP2 MSTORE PUSH1 0x4 ADD PUSH2 0xAEA SWAP1 PUSH2 0x2077 JUMP JUMPDEST PUSH1 0x40 MLOAD DUP1 SWAP2 SUB SWAP1 REVERT JUMPDEST PUSH1 0x0 PUSH2 0xAFF DUP9 DUP7 PUSH2 0xE79 JUMP JUMPDEST SWAP1 POP PUSH1 0x0 PUSH2 0xB0D DUP9 DUP8 PUSH2 0xFAD JUMP JUMPDEST SWAP1 POP DUP6 PUSH1 0x20 ADD MLOAD PUSH20 0xFFFFFFFFFFFFFFFFFFFFFFFFFFFFFFFFFFFFFFFF AND DUP3 PUSH20 0xFFFFFFFFFFFFFFFFFFFFFFFFFFFFFFFFFFFFFFFF AND EQ PUSH2 0xB81 JUMPI PUSH1 0x40 MLOAD PUSH32 0x8C379A000000000000000000000000000000000000000000000000000000000 DUP2 MSTORE PUSH1 0x4 ADD PUSH2 0xB78 SWAP1 PUSH2 0x214F JUMP JUMPDEST PUSH1 0x40 MLOAD DUP1 SWAP2 SUB SWAP1 REVERT JUMPDEST DUP6 PUSH1 0x40 ADD MLOAD PUSH20 0xFFFFFFFFFFFFFFFFFFFFFFFFFFFFFFFFFFFFFFFF AND DUP2 PUSH20 0xFFFFFFFFFFFFFFFFFFFFFFFFFFFFFFFFFFFFFFFF AND EQ PUSH2 0xBF3 JUMPI PUSH1 0x40 MLOAD PUSH32 0x8C379A000000000000000000000000000000000000000000000000000000000 DUP2 MSTORE PUSH1 0x4 ADD PUSH2 0xBEA SWAP1 PUSH2 0x21BB JUMP JUMPDEST PUSH1 0x40 MLOAD DUP1 SWAP2 SUB SWAP1 REVERT JUMPDEST PUSH1 0x0 ISZERO ISZERO PUSH1 0x4 PUSH1 0x0 DUP9 PUSH1 0x20 ADD MLOAD PUSH20 0xFFFFFFFFFFFFFFFFFFFFFFFFFFFFFFFFFFFFFFFF AND PUSH20 0xFFFFFFFFFFFFFFFFFFFFFFFFFFFFFFFFFFFFFFFF AND DUP2 MSTORE PUSH1 0x20 ADD SWAP1 DUP2 MSTORE PUSH1 0x20 ADD PUSH1 0x0 KECCAK256 PUSH1 0x0 DUP9 PUSH1 0x0 ADD MLOAD DUP2 MSTORE PUSH1 0x20 ADD SWAP1 DUP2 MSTORE PUSH1 0x20 ADD PUSH1 0x0 KECCAK256 PUSH1 0x0 SWAP1 SLOAD SWAP1 PUSH2 0x100 EXP SWAP1 DIV PUSH1 0xFF AND ISZERO ISZERO EQ PUSH2 0xC9F JUMPI PUSH1 0x40 MLOAD PUSH32 0x8C379A000000000000000000000000000000000000000000000000000000000 DUP2 MSTORE PUSH1 0x4 ADD PUSH2 0xC96 SWAP1 PUSH2 0x20E3 JUMP JUMPDEST PUSH1 0x40 MLOAD DUP1 SWAP2 SUB SWAP1 REVERT JUMPDEST PUSH1 0x0 DUP7 PUSH1 0x80 ADD MLOAD SWAP1 POP PUSH1 0x0 DUP8 PUSH1 0x80 ADD MLOAD SWAP1 POP DUP2 PUSH20 0xFFFFFFFFFFFFFFFFFFFFFFFFFFFFFFFFFFFFFFFF AND PUSH4 0xD505ACCF DUP10 PUSH1 0x20 ADD MLOAD ADDRESS DUP12 PUSH1 0x60 ADD MLOAD DUP14 DUP13 DUP13 DUP13 PUSH1 0x40 MLOAD DUP9 PUSH4 0xFFFFFFFF AND PUSH1 0xE0 SHL DUP2 MSTORE PUSH1 0x4 ADD PUSH2 0xCFE SWAP8 SWAP7 SWAP6 SWAP5 SWAP4 SWAP3 SWAP2 SWAP1 PUSH2 0x22E6 JUMP JUMPDEST PUSH1 0x0 PUSH1 0x40 MLOAD DUP1 DUP4 SUB DUP2 PUSH1 0x0 DUP8 DUP1 EXTCODESIZE ISZERO DUP1 ISZERO PUSH2 0xD18 JUMPI PUSH1 0x0 DUP1 REVERT JUMPDEST POP GAS CALL ISZERO DUP1 ISZERO PUSH2 0xD2C JUMPI RETURNDATASIZE PUSH1 0x0 DUP1 RETURNDATACOPY RETURNDATASIZE PUSH1 0x0 REVERT JUMPDEST POP POP POP POP DUP1 PUSH20 0xFFFFFFFFFFFFFFFFFFFFFFFFFFFFFFFFFFFFFFFF AND PUSH4 0x23B872DD DUP10 PUSH1 0x20 ADD MLOAD DUP11 PUSH1 0x40 ADD MLOAD DUP12 PUSH1 0x60 ADD MLOAD PUSH1 0x40 MLOAD DUP5 PUSH4 0xFFFFFFFF AND PUSH1 0xE0 SHL DUP2 MSTORE PUSH1 0x4 ADD PUSH2 0xD79 SWAP4 SWAP3 SWAP2 SWAP1 PUSH2 0x21DB JUMP JUMPDEST PUSH1 0x20 PUSH1 0x40 MLOAD DUP1 DUP4 SUB DUP2 PUSH1 0x0 DUP8 GAS CALL ISZERO DUP1 ISZERO PUSH2 0xD98 JUMPI RETURNDATASIZE PUSH1 0x0 DUP1 RETURNDATACOPY RETURNDATASIZE PUSH1 0x0 REVERT JUMPDEST POP POP POP POP PUSH1 0x40 MLOAD RETURNDATASIZE PUSH1 0x1F NOT PUSH1 0x1F DUP3 ADD AND DUP3 ADD DUP1 PUSH1 0x40 MSTORE POP DUP2 ADD SWAP1 PUSH2 0xDBC SWAP2 SWAP1 PUSH2 0x223E JUMP JUMPDEST PUSH2 0xDFB JUMPI PUSH1 0x40 MLOAD PUSH32 0x8C379A000000000000000000000000000000000000000000000000000000000 DUP2 MSTORE PUSH1 0x4 ADD PUSH2 0xDF2 SWAP1 PUSH2 0x22B7 JUMP JUMPDEST PUSH1 0x40 MLOAD DUP1 SWAP2 SUB SWAP1 REVERT JUMPDEST PUSH1 0x1 PUSH1 0x4 PUSH1 0x0 DUP11 PUSH1 0x20 ADD MLOAD PUSH20 0xFFFFFFFFFFFFFFFFFFFFFFFFFFFFFFFFFFFFFFFF AND PUSH20 0xFFFFFFFFFFFFFFFFFFFFFFFFFFFFFFFFFFFFFFFF AND DUP2 MSTORE PUSH1 0x20 ADD SWAP1 DUP2 MSTORE PUSH1 0x20 ADD PUSH1 0x0 KECCAK256 PUSH1 0x0 DUP11 PUSH1 0x0 ADD MLOAD DUP2 MSTORE PUSH1 0x20 ADD SWAP1 DUP2 MSTORE PUSH1 0x20 ADD PUSH1 0x0 KECCAK256 PUSH1 0x0 PUSH2 0x100 EXP DUP2 SLOAD DUP2 PUSH1 0xFF MUL NOT AND SWAP1 DUP4 ISZERO ISZERO MUL OR SWAP1 SSTORE POP POP POP POP POP POP POP POP POP POP POP POP JUMP JUMPDEST PUSH1 0x0 DUP1 DUP3 PUSH1 0x60 ADD MLOAD GT PUSH2 0xEC1 JUMPI PUSH1 0x40 MLOAD PUSH32 0x8C379A000000000000000000000000000000000000000000000000000000000 DUP2 MSTORE PUSH1 0x4 ADD PUSH2 0xEB8 SWAP1 PUSH2 0x1F9F JUMP JUMPDEST PUSH1 0x40 MLOAD DUP1 SWAP2 SUB SWAP1 REVERT JUMPDEST PUSH1 0x0 PUSH20 0xFFFFFFFFFFFFFFFFFFFFFFFFFFFFFFFFFFFFFFFF AND DUP3 PUSH1 0x20 ADD MLOAD PUSH20 0xFFFFFFFFFFFFFFFFFFFFFFFFFFFFFFFFFFFFFFFF AND SUB PUSH2 0xF34 JUMPI PUSH1 0x40 MLOAD PUSH32 0x8C379A000000000000000000000000000000000000000000000000000000000 DUP2 MSTORE PUSH1 0x4 ADD PUSH2 0xF2B SWAP1 PUSH2 0x200B JUMP JUMPDEST PUSH1 0x40 MLOAD DUP1 SWAP2 SUB SWAP1 REVERT JUMPDEST PUSH1 0x0 PUSH1 0x2 SLOAD DUP4 PUSH1 0x0 ADD MLOAD DUP5 PUSH1 0x20 ADD MLOAD DUP6 PUSH1 0x40 ADD MLOAD DUP7 PUSH1 0x60 ADD MLOAD DUP8 PUSH1 0xA0 ADD MLOAD DUP1 MLOAD SWAP1 PUSH1 0x20 ADD KECCAK256 PUSH1 0x40 MLOAD PUSH1 0x20 ADD PUSH2 0xF6E SWAP7 SWAP6 SWAP5 SWAP4 SWAP3 SWAP2 SWAP1 PUSH2 0x2355 JUMP JUMPDEST PUSH1 0x40 MLOAD PUSH1 0x20 DUP2 DUP4 SUB SUB DUP2 MSTORE SWAP1 PUSH1 0x40 MSTORE DUP1 MLOAD SWAP1 PUSH1 0x20 ADD KECCAK256 SWAP1 POP PUSH1 0x0 PUSH2 0xF91 DUP3 PUSH2 0x1157 JUMP JUMPDEST SWAP1 POP PUSH1 0x0 PUSH2 0xF9F DUP3 DUP8 PUSH2 0x1171 JUMP JUMPDEST SWAP1 POP DUP1 SWAP4 POP POP POP POP SWAP3 SWAP2 POP POP JUMP JUMPDEST PUSH1 0x0 DUP1 DUP3 PUSH1 0x60 ADD MLOAD GT PUSH2 0xFF5 JUMPI PUSH1 0x40 MLOAD PUSH32 0x8C379A000000000000000000000000000000000000000000000000000000000 DUP2 MSTORE PUSH1 0x4 ADD PUSH2 0xFEC SWAP1 PUSH2 0x1F9F JUMP JUMPDEST PUSH1 0x40 MLOAD DUP1 SWAP2 SUB SWAP1 REVERT JUMPDEST PUSH1 0x0 PUSH20 0xFFFFFFFFFFFFFFFFFFFFFFFFFFFFFFFFFFFFFFFF AND DUP3 PUSH1 0x40 ADD MLOAD PUSH20 0xFFFFFFFFFFFFFFFFFFFFFFFFFFFFFFFFFFFFFFFF AND SUB PUSH2 0x1068 JUMPI PUSH1 0x40 MLOAD PUSH32 0x8C379A000000000000000000000000000000000000000000000000000000000 DUP2 MSTORE PUSH1 0x4 ADD PUSH2 0x105F SWAP1 PUSH2 0x200B JUMP JUMPDEST PUSH1 0x40 MLOAD DUP1 SWAP2 SUB SWAP1 REVERT JUMPDEST PUSH1 0x0 PUSH1 0x3 SLOAD DUP4 PUSH1 0x0 ADD MLOAD DUP5 PUSH1 0x20 ADD MLOAD DUP6 PUSH1 0x40 ADD MLOAD DUP7 PUSH1 0x60 ADD MLOAD DUP8 PUSH1 0xA0 ADD MLOAD DUP1 MLOAD SWAP1 PUSH1 0x20 ADD KECCAK256 PUSH1 0x40 MLOAD PUSH1 0x20 ADD PUSH2 0x10A2 SWAP7 SWAP6 SWAP5 SWAP4 SWAP3 SWAP2 SWAP1 PUSH2 0x2355 JUMP JUMPDEST PUSH1 0x40 MLOAD PUSH1 0x20 DUP2 DUP4 SUB SUB DUP2 MSTORE SWAP1 PUSH1 0x40 MSTORE DUP1 MLOAD SWAP1 PUSH1 0x20 ADD KECCAK256 SWAP1 POP PUSH1 0x0 PUSH2 0x10C5 DUP3 PUSH2 0x1157 JUMP JUMPDEST SWAP1 POP PUSH1 0x0 PUSH2 0x10D3 DUP3 DUP8 PUSH2 0x1171 JUMP JUMPDEST SWAP1 POP DUP1 SWAP4 POP POP POP POP SWAP3 SWAP2 POP POP JUMP JUMPDEST PUSH1 0x60 PUSH2 0x1117 PUSH1 0x0 PUSH32 0x0 PUSH2 0x119D SWAP1 SWAP2 SWAP1 PUSH4 0xFFFFFFFF AND JUMP JUMPDEST SWAP1 POP SWAP1 JUMP JUMPDEST PUSH1 0x60 PUSH2 0x1152 PUSH1 0x1 PUSH32 0x0 PUSH2 0x119D SWAP1 SWAP2 SWAP1 PUSH4 0xFFFFFFFF AND JUMP JUMPDEST SWAP1 POP SWAP1 JUMP JUMPDEST PUSH1 0x0 PUSH2 0x116A PUSH2 0x1164 PUSH2 0x124D JUMP JUMPDEST DUP4 PUSH2 0x1304 JUMP JUMPDEST SWAP1 POP SWAP2 SWAP1 POP JUMP JUMPDEST PUSH1 0x0 DUP1 PUSH1 0x0 DUP1 PUSH2 0x1181 DUP7 DUP7 PUSH2 0x1345 JUMP JUMPDEST SWAP3 POP SWAP3 POP SWAP3 POP PUSH2 0x1191 DUP3 DUP3 PUSH2 0x13A1 JUMP JUMPDEST DUP3 SWAP4 POP POP POP POP SWAP3 SWAP2 POP POP JUMP JUMPDEST PUSH1 0x60 PUSH1 0xFF PUSH1 0x0 SHL DUP4 EQ PUSH2 0x11BA JUMPI PUSH2 0x11B3 DUP4 PUSH2 0x1505 JUMP JUMPDEST SWAP1 POP PUSH2 0x1247 JUMP JUMPDEST DUP2 DUP1 SLOAD PUSH2 0x11C6 SWAP1 PUSH2 0x23E5 JUMP JUMPDEST DUP1 PUSH1 0x1F ADD PUSH1 0x20 DUP1 SWAP2 DIV MUL PUSH1 0x20 ADD PUSH1 0x40 MLOAD SWAP1 DUP2 ADD PUSH1 0x40 MSTORE DUP1 SWAP3 SWAP2 SWAP1 DUP2 DUP2 MSTORE PUSH1 0x20 ADD DUP3 DUP1 SLOAD PUSH2 0x11F2 SWAP1 PUSH2 0x23E5 JUMP JUMPDEST DUP1 ISZERO PUSH2 0x123F JUMPI DUP1 PUSH1 0x1F LT PUSH2 0x1214 JUMPI PUSH2 0x100 DUP1 DUP4 SLOAD DIV MUL DUP4 MSTORE SWAP2 PUSH1 0x20 ADD SWAP2 PUSH2 0x123F JUMP JUMPDEST DUP3 ADD SWAP2 SWAP1 PUSH1 0x0 MSTORE PUSH1 0x20 PUSH1 0x0 KECCAK256 SWAP1 JUMPDEST DUP2 SLOAD DUP2 MSTORE SWAP1 PUSH1 0x1 ADD SWAP1 PUSH1 0x20 ADD DUP1 DUP4 GT PUSH2 0x1222 JUMPI DUP3 SWAP1 SUB PUSH1 0x1F AND DUP3 ADD SWAP2 JUMPDEST POP POP POP POP POP SWAP1 POP JUMPDEST SWAP3 SWAP2 POP POP JUMP JUMPDEST PUSH1 0x0 PUSH32 0x0 PUSH20 0xFFFFFFFFFFFFFFFFFFFFFFFFFFFFFFFFFFFFFFFF AND ADDRESS PUSH20 0xFFFFFFFFFFFFFFFFFFFFFFFFFFFFFFFFFFFFFFFF AND EQ DUP1 ISZERO PUSH2 0x12C9 JUMPI POP PUSH32 0x0 CHAINID EQ JUMPDEST ISZERO PUSH2 0x12F6 JUMPI PUSH32 0x0 SWAP1 POP PUSH2 0x1301 JUMP JUMPDEST PUSH2 0x12FE PUSH2 0x1579 JUMP JUMPDEST SWAP1 POP JUMPDEST SWAP1 JUMP JUMPDEST PUSH1 0x0 PUSH1 0x40 MLOAD PUSH32 0x1901000000000000000000000000000000000000000000000000000000000000 DUP2 MSTORE DUP4 PUSH1 0x2 DUP3 ADD MSTORE DUP3 PUSH1 0x22 DUP3 ADD MSTORE PUSH1 0x42 DUP2 KECCAK256 SWAP2 POP POP SWAP3 SWAP2 POP POP JUMP JUMPDEST PUSH1 0x0 DUP1 PUSH1 0x0 PUSH1 0x41 DUP5 MLOAD SUB PUSH2 0x138A JUMPI PUSH1 0x0 DUP1 PUSH1 0x0 PUSH1 0x20 DUP8 ADD MLOAD SWAP3 POP PUSH1 0x40 DUP8 ADD MLOAD SWAP2 POP PUSH1 0x60 DUP8 ADD MLOAD PUSH1 0x0 BYTE SWAP1 POP PUSH2 0x137C DUP9 DUP3 DUP6 DUP6 PUSH2 0x160F JUMP JUMPDEST SWAP6 POP SWAP6 POP SWAP6 POP POP POP POP PUSH2 0x139A JUMP JUMPDEST PUSH1 0x0 PUSH1 0x2 DUP6 MLOAD PUSH1 0x0 SHL SWAP3 POP SWAP3 POP SWAP3 POP JUMPDEST SWAP3 POP SWAP3 POP SWAP3 JUMP JUMPDEST PUSH1 0x0 PUSH1 0x3 DUP2 GT ISZERO PUSH2 0x13B5 JUMPI PUSH2 0x13B4 PUSH2 0x2416 JUMP JUMPDEST JUMPDEST DUP3 PUSH1 0x3 DUP2 GT ISZERO PUSH2 0x13C8 JUMPI PUSH2 0x13C7 PUSH2 0x2416 JUMP JUMPDEST JUMPDEST SUB ISZERO PUSH2 0x1501 JUMPI PUSH1 0x1 PUSH1 0x3 DUP2 GT ISZERO PUSH2 0x13E2 JUMPI PUSH2 0x13E1 PUSH2 0x2416 JUMP JUMPDEST JUMPDEST DUP3 PUSH1 0x3 DUP2 GT ISZERO PUSH2 0x13F5 JUMPI PUSH2 0x13F4 PUSH2 0x2416 JUMP JUMPDEST JUMPDEST SUB PUSH2 0x142C JUMPI PUSH1 0x40 MLOAD PUSH32 0xF645EEDF00000000000000000000000000000000000000000000000000000000 DUP2 MSTORE PUSH1 0x4 ADD PUSH1 0x40 MLOAD DUP1 SWAP2 SUB SWAP1 REVERT JUMPDEST PUSH1 0x2 PUSH1 0x3 DUP2 GT ISZERO PUSH2 0x1440 JUMPI PUSH2 0x143F PUSH2 0x2416 JUMP JUMPDEST JUMPDEST DUP3 PUSH1 0x3 DUP2 GT ISZERO PUSH2 0x1453 JUMPI PUSH2 0x1452 PUSH2 0x2416 JUMP JUMPDEST JUMPDEST SUB PUSH2 0x1498 JUMPI DUP1 PUSH1 0x0 SHR PUSH1 0x40 MLOAD PUSH32 0xFCE698F700000000000000000000000000000000000000000000000000000000 DUP2 MSTORE PUSH1 0x4 ADD PUSH2 0x148F SWAP2 SWAP1 PUSH2 0x2445 JUMP JUMPDEST PUSH1 0x40 MLOAD DUP1 SWAP2 SUB SWAP1 REVERT JUMPDEST PUSH1 0x3 DUP1 DUP2 GT ISZERO PUSH2 0x14AB JUMPI PUSH2 0x14AA PUSH2 0x2416 JUMP JUMPDEST JUMPDEST DUP3 PUSH1 0x3 DUP2 GT ISZERO PUSH2 0x14BE JUMPI PUSH2 0x14BD PUSH2 0x2416 JUMP JUMPDEST JUMPDEST SUB PUSH2 0x1500 JUMPI DUP1 PUSH1 0x40 MLOAD PUSH32 0xD78BCE0C00000000000000000000000000000000000000000000000000000000 DUP2 MSTORE PUSH1 0x4 ADD PUSH2 0x14F7 SWAP2 SWAP1 PUSH2 0x2460 JUMP JUMPDEST PUSH1 0x40 MLOAD DUP1 SWAP2 SUB SWAP1 REVERT JUMPDEST JUMPDEST POP POP JUMP JUMPDEST PUSH1 0x60 PUSH1 0x0 PUSH2 0x1512 DUP4 PUSH2 0x1703 JUMP JUMPDEST SWAP1 POP PUSH1 0x0 PUSH1 0x20 PUSH8 0xFFFFFFFFFFFFFFFF DUP2 GT ISZERO PUSH2 0x1531 JUMPI PUSH2 0x1530 PUSH2 0x1782 JUMP JUMPDEST JUMPDEST PUSH1 0x40 MLOAD SWAP1 DUP1 DUP3 MSTORE DUP1 PUSH1 0x1F ADD PUSH1 0x1F NOT AND PUSH1 0x20 ADD DUP3 ADD PUSH1 0x40 MSTORE DUP1 ISZERO PUSH2 0x1563 JUMPI DUP2 PUSH1 0x20 ADD PUSH1 0x1 DUP3 MUL DUP1 CALLDATASIZE DUP4 CALLDATACOPY DUP1 DUP3 ADD SWAP2 POP POP SWAP1 POP JUMPDEST POP SWAP1 POP DUP2 DUP2 MSTORE DUP4 PUSH1 0x20 DUP3 ADD MSTORE DUP1 SWAP3 POP POP POP SWAP2 SWAP1 POP JUMP JUMPDEST PUSH1 0x0 PUSH32 0x8B73C3C69BB8FE3D512ECC4CF759CC79239F7B179B0FFACAA9A75D522B39400F PUSH32 0x0 PUSH32 0x0 CHAINID ADDRESS PUSH1 0x40 MLOAD PUSH1 0x20 ADD PUSH2 0x15F4 SWAP6 SWAP5 SWAP4 SWAP3 SWAP2 SWAP1 PUSH2 0x247B JUMP JUMPDEST PUSH1 0x40 MLOAD PUSH1 0x20 DUP2 DUP4 SUB SUB DUP2 MSTORE SWAP1 PUSH1 0x40 MSTORE DUP1 MLOAD SWAP1 PUSH1 0x20 ADD KECCAK256 SWAP1 POP SWAP1 JUMP JUMPDEST PUSH1 0x0 DUP1 PUSH1 0x0 PUSH32 0x7FFFFFFFFFFFFFFFFFFFFFFFFFFFFFFF5D576E7357A4501DDFE92F46681B20A0 DUP5 PUSH1 0x0 SHR GT ISZERO PUSH2 0x164F JUMPI PUSH1 0x0 PUSH1 0x3 DUP6 SWAP3 POP SWAP3 POP SWAP3 POP PUSH2 0x16F9 JUMP JUMPDEST PUSH1 0x0 PUSH1 0x1 DUP9 DUP9 DUP9 DUP9 PUSH1 0x40 MLOAD PUSH1 0x0 DUP2 MSTORE PUSH1 0x20 ADD PUSH1 0x40 MSTORE PUSH1 0x40 MLOAD PUSH2 0x1674 SWAP5 SWAP4 SWAP3 SWAP2 SWAP1 PUSH2 0x24CE JUMP JUMPDEST PUSH1 0x20 PUSH1 0x40 MLOAD PUSH1 0x20 DUP2 SUB SWAP1 DUP1 DUP5 SUB SWAP1 DUP6 GAS STATICCALL ISZERO DUP1 ISZERO PUSH2 0x1696 JUMPI RETURNDATASIZE PUSH1 0x0 DUP1 RETURNDATACOPY RETURNDATASIZE PUSH1 0x0 REVERT JUMPDEST POP POP POP PUSH1 0x20 PUSH1 0x40 MLOAD SUB MLOAD SWAP1 POP PUSH1 0x0 PUSH20 0xFFFFFFFFFFFFFFFFFFFFFFFFFFFFFFFFFFFFFFFF AND DUP2 PUSH20 0xFFFFFFFFFFFFFFFFFFFFFFFFFFFFFFFFFFFFFFFF AND SUB PUSH2 0x16EA JUMPI PUSH1 0x0 PUSH1 0x1 PUSH1 0x0 DUP1 SHL SWAP4 POP SWAP4 POP SWAP4 POP POP PUSH2 0x16F9 JUMP JUMPDEST DUP1 PUSH1 0x0 DUP1 PUSH1 0x0 SHL SWAP4 POP SWAP4 POP SWAP4 POP POP JUMPDEST SWAP5 POP SWAP5 POP SWAP5 SWAP2 POP POP JUMP JUMPDEST PUSH1 0x0 DUP1 PUSH1 0xFF DUP4 PUSH1 0x0 SHR AND SWAP1 POP PUSH1 0x1F DUP2 GT ISZERO PUSH2 0x174A JUMPI PUSH1 0x40 MLOAD PUSH32 0xB3512B0C00000000000000000000000000000000000000000000000000000000 DUP2 MSTORE PUSH1 0x4 ADD PUSH1 0x40 MLOAD DUP1 SWAP2 SUB SWAP1 REVERT JUMPDEST DUP1 SWAP2 POP POP SWAP2 SWAP1 POP JUMP JUMPDEST PUSH1 0x0 PUSH1 0x40 MLOAD SWAP1 POP SWAP1 JUMP JUMPDEST PUSH1 0x0 DUP1 REVERT JUMPDEST PUSH1 0x0 DUP1 REVERT JUMPDEST PUSH1 0x0 DUP1 REVERT JUMPDEST PUSH1 0x0 DUP1 REVERT JUMPDEST PUSH1 0x0 PUSH1 0x1F NOT PUSH1 0x1F DUP4 ADD AND SWAP1 POP SWAP2 SWAP1 POP JUMP JUMPDEST PUSH32 0x4E487B7100000000000000000000000000000000000000000000000000000000 PUSH1 0x0 MSTORE PUSH1 0x41 PUSH1 0x4 MSTORE PUSH1 0x24 PUSH1 0x0 REVERT JUMPDEST PUSH2 0x17BA DUP3 PUSH2 0x1771 JUMP JUMPDEST DUP2 ADD DUP2 DUP2 LT PUSH8 0xFFFFFFFFFFFFFFFF DUP3 GT OR ISZERO PUSH2 0x17D9 JUMPI PUSH2 0x17D8 PUSH2 0x1782 JUMP JUMPDEST JUMPDEST DUP1 PUSH1 0x40 MSTORE POP POP POP JUMP JUMPDEST PUSH1 0x0 PUSH2 0x17EC PUSH2 0x1753 JUMP JUMPDEST SWAP1 POP PUSH2 0x17F8 DUP3 DUP3 PUSH2 0x17B1 JUMP JUMPDEST SWAP2 SWAP1 POP JUMP JUMPDEST PUSH1 0x0 PUSH8 0xFFFFFFFFFFFFFFFF DUP3 GT ISZERO PUSH2 0x1818 JUMPI PUSH2 0x1817 PUSH2 0x1782 JUMP JUMPDEST JUMPDEST PUSH2 0x1821 DUP3 PUSH2 0x1771 JUMP JUMPDEST SWAP1 POP PUSH1 0x20 DUP2 ADD SWAP1 POP SWAP2 SWAP1 POP JUMP JUMPDEST DUP3 DUP2 DUP4 CALLDATACOPY PUSH1 0x0 DUP4 DUP4 ADD MSTORE POP POP POP JUMP JUMPDEST PUSH1 0x0 PUSH2 0x1850 PUSH2 0x184B DUP5 PUSH2 0x17FD JUMP JUMPDEST PUSH2 0x17E2 JUMP JUMPDEST SWAP1 POP DUP3 DUP2 MSTORE PUSH1 0x20 DUP2 ADD DUP5 DUP5 DUP5 ADD GT ISZERO PUSH2 0x186C JUMPI PUSH2 0x186B PUSH2 0x176C JUMP JUMPDEST JUMPDEST PUSH2 0x1877 DUP5 DUP3 DUP6 PUSH2 0x182E JUMP JUMPDEST POP SWAP4 SWAP3 POP POP POP JUMP JUMPDEST PUSH1 0x0 DUP3 PUSH1 0x1F DUP4 ADD SLT PUSH2 0x1894 JUMPI PUSH2 0x1893 PUSH2 0x1767 JUMP JUMPDEST JUMPDEST DUP2 CALLDATALOAD PUSH2 0x18A4 DUP5 DUP3 PUSH1 0x20 DUP7 ADD PUSH2 0x183D JUMP JUMPDEST SWAP2 POP POP SWAP3 SWAP2 POP POP JUMP JUMPDEST PUSH1 0x0 DUP1 REVERT JUMPDEST PUSH1 0x0 DUP1 REVERT JUMPDEST PUSH1 0x0 DUP2 SWAP1 POP SWAP2 SWAP1 POP JUMP JUMPDEST PUSH2 0x18CA DUP2 PUSH2 0x18B7 JUMP JUMPDEST DUP2 EQ PUSH2 0x18D5 JUMPI PUSH1 0x0 DUP1 REVERT JUMPDEST POP JUMP JUMPDEST PUSH1 0x0 DUP2 CALLDATALOAD SWAP1 POP PUSH2 0x18E7 DUP2 PUSH2 0x18C1 JUMP JUMPDEST SWAP3 SWAP2 POP POP JUMP JUMPDEST PUSH1 0x0 PUSH20 0xFFFFFFFFFFFFFFFFFFFFFFFFFFFFFFFFFFFFFFFF DUP3 AND SWAP1 POP SWAP2 SWAP1 POP JUMP JUMPDEST PUSH1 0x0 PUSH2 0x1918 DUP3 PUSH2 0x18ED JUMP JUMPDEST SWAP1 POP SWAP2 SWAP1 POP JUMP JUMPDEST PUSH2 0x1928 DUP2 PUSH2 0x190D JUMP JUMPDEST DUP2 EQ PUSH2 0x1933 JUMPI PUSH1 0x0 DUP1 REVERT JUMPDEST POP JUMP JUMPDEST PUSH1 0x0 DUP2 CALLDATALOAD SWAP1 POP PUSH2 0x1945 DUP2 PUSH2 0x191F JUMP JUMPDEST SWAP3 SWAP2 POP POP JUMP JUMPDEST PUSH1 0x0 PUSH8 0xFFFFFFFFFFFFFFFF DUP3 GT ISZERO PUSH2 0x1966 JUMPI PUSH2 0x1965 PUSH2 0x1782 JUMP JUMPDEST JUMPDEST PUSH2 0x196F DUP3 PUSH2 0x1771 JUMP JUMPDEST SWAP1 POP PUSH1 0x20 DUP2 ADD SWAP1 POP SWAP2 SWAP1 POP JUMP JUMPDEST PUSH1 0x0 PUSH2 0x198F PUSH2 0x198A DUP5 PUSH2 0x194B JUMP JUMPDEST PUSH2 0x17E2 JUMP JUMPDEST SWAP1 POP DUP3 DUP2 MSTORE PUSH1 0x20 DUP2 ADD DUP5 DUP5 DUP5 ADD GT ISZERO PUSH2 0x19AB JUMPI PUSH2 0x19AA PUSH2 0x176C JUMP JUMPDEST JUMPDEST PUSH2 0x19B6 DUP5 DUP3 DUP6 PUSH2 0x182E JUMP JUMPDEST POP SWAP4 SWAP3 POP POP POP JUMP JUMPDEST PUSH1 0x0 DUP3 PUSH1 0x1F DUP4 ADD SLT PUSH2 0x19D3 JUMPI PUSH2 0x19D2 PUSH2 0x1767 JUMP JUMPDEST JUMPDEST DUP2 CALLDATALOAD PUSH2 0x19E3 DUP5 DUP3 PUSH1 0x20 DUP7 ADD PUSH2 0x197C JUMP JUMPDEST SWAP2 POP POP SWAP3 SWAP2 POP POP JUMP JUMPDEST PUSH1 0x0 PUSH1 0xC0 DUP3 DUP5 SUB SLT ISZERO PUSH2 0x1A02 JUMPI PUSH2 0x1A01 PUSH2 0x18AD JUMP JUMPDEST JUMPDEST PUSH2 0x1A0C PUSH1 0xC0 PUSH2 0x17E2 JUMP JUMPDEST SWAP1 POP PUSH1 0x0 PUSH2 0x1A1C DUP5 DUP3 DUP6 ADD PUSH2 0x18D8 JUMP JUMPDEST PUSH1 0x0 DUP4 ADD MSTORE POP PUSH1 0x20 PUSH2 0x1A30 DUP5 DUP3 DUP6 ADD PUSH2 0x1936 JUMP JUMPDEST PUSH1 0x20 DUP4 ADD MSTORE POP PUSH1 0x40 PUSH2 0x1A44 DUP5 DUP3 DUP6 ADD PUSH2 0x1936 JUMP JUMPDEST PUSH1 0x40 DUP4 ADD MSTORE POP PUSH1 0x60 PUSH2 0x1A58 DUP5 DUP3 DUP6 ADD PUSH2 0x18D8 JUMP JUMPDEST PUSH1 0x60 DUP4 ADD MSTORE POP PUSH1 0x80 PUSH2 0x1A6C DUP5 DUP3 DUP6 ADD PUSH2 0x1936 JUMP JUMPDEST PUSH1 0x80 DUP4 ADD MSTORE POP PUSH1 0xA0 DUP3 ADD CALLDATALOAD PUSH8 0xFFFFFFFFFFFFFFFF DUP2 GT ISZERO PUSH2 0x1A90 JUMPI PUSH2 0x1A8F PUSH2 0x18B2 JUMP JUMPDEST JUMPDEST PUSH2 0x1A9C DUP5 DUP3 DUP6 ADD PUSH2 0x19BE JUMP JUMPDEST PUSH1 0xA0 DUP4 ADD MSTORE POP SWAP3 SWAP2 POP POP JUMP JUMPDEST PUSH1 0x0 DUP1 PUSH1 0x0 PUSH1 0x60 DUP5 DUP7 SUB SLT ISZERO PUSH2 0x1AC1 JUMPI PUSH2 0x1AC0 PUSH2 0x175D JUMP JUMPDEST JUMPDEST PUSH1 0x0 DUP5 ADD CALLDATALOAD PUSH8 0xFFFFFFFFFFFFFFFF DUP2 GT ISZERO PUSH2 0x1ADF JUMPI PUSH2 0x1ADE PUSH2 0x1762 JUMP JUMPDEST JUMPDEST PUSH2 0x1AEB DUP7 DUP3 DUP8 ADD PUSH2 0x187F JUMP JUMPDEST SWAP4 POP POP PUSH1 0x20 DUP5 ADD CALLDATALOAD PUSH8 0xFFFFFFFFFFFFFFFF DUP2 GT ISZERO PUSH2 0x1B0C JUMPI PUSH2 0x1B0B PUSH2 0x1762 JUMP JUMPDEST JUMPDEST PUSH2 0x1B18 DUP7 DUP3 DUP8 ADD PUSH2 0x187F JUMP JUMPDEST SWAP3 POP POP PUSH1 0x40 DUP5 ADD CALLDATALOAD PUSH8 0xFFFFFFFFFFFFFFFF DUP2 GT ISZERO PUSH2 0x1B39 JUMPI PUSH2 0x1B38 PUSH2 0x1762 JUMP JUMPDEST JUMPDEST PUSH2 0x1B45 DUP7 DUP3 DUP8 ADD PUSH2 0x19EC JUMP JUMPDEST SWAP2 POP POP SWAP3 POP SWAP3 POP SWAP3 JUMP JUMPDEST PUSH1 0x0 DUP1 PUSH1 0x40 DUP4 DUP6 SUB SLT ISZERO PUSH2 0x1B66 JUMPI PUSH2 0x1B65 PUSH2 0x175D JUMP JUMPDEST JUMPDEST PUSH1 0x0 PUSH2 0x1B74 DUP6 DUP3 DUP7 ADD PUSH2 0x1936 JUMP JUMPDEST SWAP3 POP POP PUSH1 0x20 PUSH2 0x1B85 DUP6 DUP3 DUP7 ADD PUSH2 0x18D8 JUMP JUMPDEST SWAP2 POP POP SWAP3 POP SWAP3 SWAP1 POP JUMP JUMPDEST PUSH1 0x0 DUP2 ISZERO ISZERO SWAP1 POP SWAP2 SWAP1 POP JUMP JUMPDEST PUSH2 0x1BA4 DUP2 PUSH2 0x1B8F JUMP JUMPDEST DUP3 MSTORE POP POP JUMP JUMPDEST PUSH1 0x0 PUSH1 0x20 DUP3 ADD SWAP1 POP PUSH2 0x1BBF PUSH1 0x0 DUP4 ADD DUP5 PUSH2 0x1B9B JUMP JUMPDEST SWAP3 SWAP2 POP POP JUMP JUMPDEST PUSH1 0x0 PUSH32 0xFF00000000000000000000000000000000000000000000000000000000000000 DUP3 AND SWAP1 POP SWAP2 SWAP1 POP JUMP JUMPDEST PUSH2 0x1BFA DUP2 PUSH2 0x1BC5 JUMP JUMPDEST DUP3 MSTORE POP POP JUMP JUMPDEST PUSH1 0x0 DUP2 MLOAD SWAP1 POP SWAP2 SWAP1 POP JUMP JUMPDEST PUSH1 0x0 DUP3 DUP3 MSTORE PUSH1 0x20 DUP3 ADD SWAP1 POP SWAP3 SWAP2 POP POP JUMP JUMPDEST PUSH1 0x0 JUMPDEST DUP4 DUP2 LT ISZERO PUSH2 0x1C3A JUMPI DUP1 DUP3 ADD MLOAD DUP2 DUP5 ADD MSTORE PUSH1 0x20 DUP2 ADD SWAP1 POP PUSH2 0x1C1F JUMP JUMPDEST PUSH1 0x0 DUP5 DUP5 ADD MSTORE POP POP POP POP JUMP JUMPDEST PUSH1 0x0 PUSH2 0x1C51 DUP3 PUSH2 0x1C00 JUMP JUMPDEST PUSH2 0x1C5B DUP2 DUP6 PUSH2 0x1C0B JUMP JUMPDEST SWAP4 POP PUSH2 0x1C6B DUP2 DUP6 PUSH1 0x20 DUP7 ADD PUSH2 0x1C1C JUMP JUMPDEST PUSH2 0x1C74 DUP2 PUSH2 0x1771 JUMP JUMPDEST DUP5 ADD SWAP2 POP POP SWAP3 SWAP2 POP POP JUMP JUMPDEST PUSH2 0x1C88 DUP2 PUSH2 0x18B7 JUMP JUMPDEST DUP3 MSTORE POP POP JUMP JUMPDEST PUSH2 0x1C97 DUP2 PUSH2 0x190D JUMP JUMPDEST DUP3 MSTORE POP POP JUMP JUMPDEST PUSH1 0x0 DUP2 SWAP1 POP SWAP2 SWAP1 POP JUMP JUMPDEST PUSH2 0x1CB0 DUP2 PUSH2 0x1C9D JUMP JUMPDEST DUP3 MSTORE POP POP JUMP JUMPDEST PUSH1 0x0 DUP2 MLOAD SWAP1 POP SWAP2 SWAP1 POP JUMP JUMPDEST PUSH1 0x0 DUP3 DUP3 MSTORE PUSH1 0x20 DUP3 ADD SWAP1 POP SWAP3 SWAP2 POP POP JUMP JUMPDEST PUSH1 0x0 DUP2 SWAP1 POP PUSH1 0x20 DUP3 ADD SWAP1 POP SWAP2 SWAP1 POP JUMP JUMPDEST PUSH2 0x1CEB DUP2 PUSH2 0x18B7 JUMP JUMPDEST DUP3 MSTORE POP POP JUMP JUMPDEST PUSH1 0x0 PUSH2 0x1CFD DUP4 DUP4 PUSH2 0x1CE2 JUMP JUMPDEST PUSH1 0x20 DUP4 ADD SWAP1 POP SWAP3 SWAP2 POP POP JUMP JUMPDEST PUSH1 0x0 PUSH1 0x20 DUP3 ADD SWAP1 POP SWAP2 SWAP1 POP JUMP JUMPDEST PUSH1 0x0 PUSH2 0x1D21 DUP3 PUSH2 0x1CB6 JUMP JUMPDEST PUSH2 0x1D2B DUP2 DUP6 PUSH2 0x1CC1 JUMP JUMPDEST SWAP4 POP PUSH2 0x1D36 DUP4 PUSH2 0x1CD2 JUMP JUMPDEST DUP1 PUSH1 0x0 JUMPDEST DUP4 DUP2 LT ISZERO PUSH2 0x1D67 JUMPI DUP2 MLOAD PUSH2 0x1D4E DUP9 DUP3 PUSH2 0x1CF1 JUMP JUMPDEST SWAP8 POP PUSH2 0x1D59 DUP4 PUSH2 0x1D09 JUMP JUMPDEST SWAP3 POP POP PUSH1 0x1 DUP2 ADD SWAP1 POP PUSH2 0x1D3A JUMP JUMPDEST POP DUP6 SWAP4 POP POP POP POP SWAP3 SWAP2 POP POP JUMP JUMPDEST PUSH1 0x0 PUSH1 0xE0 DUP3 ADD SWAP1 POP PUSH2 0x1D89 PUSH1 0x0 DUP4 ADD DUP11 PUSH2 0x1BF1 JUMP JUMPDEST DUP2 DUP2 SUB PUSH1 0x20 DUP4 ADD MSTORE PUSH2 0x1D9B DUP2 DUP10 PUSH2 0x1C46 JUMP JUMPDEST SWAP1 POP DUP2 DUP2 SUB PUSH1 0x40 DUP4 ADD MSTORE PUSH2 0x1DAF DUP2 DUP9 PUSH2 0x1C46 JUMP JUMPDEST SWAP1 POP PUSH2 0x1DBE PUSH1 0x60 DUP4 ADD DUP8 PUSH2 0x1C7F JUMP JUMPDEST PUSH2 0x1DCB PUSH1 0x80 DUP4 ADD DUP7 PUSH2 0x1C8E JUMP JUMPDEST PUSH2 0x1DD8 PUSH1 0xA0 DUP4 ADD DUP6 PUSH2 0x1CA7 JUMP JUMPDEST DUP2 DUP2 SUB PUSH1 0xC0 DUP4 ADD MSTORE PUSH2 0x1DEA DUP2 DUP5 PUSH2 0x1D16 JUMP JUMPDEST SWAP1 POP SWAP9 SWAP8 POP POP POP POP POP POP POP POP JUMP JUMPDEST PUSH1 0x0 PUSH1 0xFF DUP3 AND SWAP1 POP SWAP2 SWAP1 POP JUMP JUMPDEST PUSH2 0x1E0E DUP2 PUSH2 0x1DF8 JUMP JUMPDEST DUP2 EQ PUSH2 0x1E19 JUMPI PUSH1 0x0 DUP1 REVERT JUMPDEST POP JUMP JUMPDEST PUSH1 0x0 DUP2 CALLDATALOAD SWAP1 POP PUSH2 0x1E2B DUP2 PUSH2 0x1E05 JUMP JUMPDEST SWAP3 SWAP2 POP POP JUMP JUMPDEST PUSH2 0x1E3A DUP2 PUSH2 0x1C9D JUMP JUMPDEST DUP2 EQ PUSH2 0x1E45 JUMPI PUSH1 0x0 DUP1 REVERT JUMPDEST POP JUMP JUMPDEST PUSH1 0x0 DUP2 CALLDATALOAD SWAP1 POP PUSH2 0x1E57 DUP2 PUSH2 0x1E31 JUMP JUMPDEST SWAP3 SWAP2 POP POP JUMP JUMPDEST PUSH1 0x0 DUP1 PUSH1 0x0 DUP1 PUSH1 0x0 DUP1 PUSH1 0x0 PUSH1 0xE0 DUP9 DUP11 SUB SLT ISZERO PUSH2 0x1E7C JUMPI PUSH2 0x1E7B PUSH2 0x175D JUMP JUMPDEST JUMPDEST PUSH1 0x0 DUP9 ADD CALLDATALOAD PUSH8 0xFFFFFFFFFFFFFFFF DUP2 GT ISZERO PUSH2 0x1E9A JUMPI PUSH2 0x1E99 PUSH2 0x1762 JUMP JUMPDEST JUMPDEST PUSH2 0x1EA6 DUP11 DUP3 DUP12 ADD PUSH2 0x187F JUMP JUMPDEST SWAP8 POP POP PUSH1 0x20 DUP9 ADD CALLDATALOAD PUSH8 0xFFFFFFFFFFFFFFFF DUP2 GT ISZERO PUSH2 0x1EC7 JUMPI PUSH2 0x1EC6 PUSH2 0x1762 JUMP JUMPDEST JUMPDEST PUSH2 0x1ED3 DUP11 DUP3 DUP12 ADD PUSH2 0x187F JUMP JUMPDEST SWAP7 POP POP PUSH1 0x40 PUSH2 0x1EE4 DUP11 DUP3 DUP12 ADD PUSH2 0x18D8 JUMP JUMPDEST SWAP6 POP POP PUSH1 0x60 DUP9 ADD CALLDATALOAD PUSH8 0xFFFFFFFFFFFFFFFF DUP2 GT ISZERO PUSH2 0x1F05 JUMPI PUSH2 0x1F04 PUSH2 0x1762 JUMP JUMPDEST JUMPDEST PUSH2 0x1F11 DUP11 DUP3 DUP12 ADD PUSH2 0x19EC JUMP JUMPDEST SWAP5 POP POP PUSH1 0x80 PUSH2 0x1F22 DUP11 DUP3 DUP12 ADD PUSH2 0x1E1C JUMP JUMPDEST SWAP4 POP POP PUSH1 0xA0 PUSH2 0x1F33 DUP11 DUP3 DUP12 ADD PUSH2 0x1E48 JUMP JUMPDEST SWAP3 POP POP PUSH1 0xC0 PUSH2 0x1F44 DUP11 DUP3 DUP12 ADD PUSH2 0x1E48 JUMP JUMPDEST SWAP2 POP POP SWAP3 SWAP6 SWAP9 SWAP2 SWAP5 SWAP8 POP SWAP3 SWAP6 POP JUMP JUMPDEST PUSH32 0x416D6F756E74206D7573742062652067726561746572207468616E2030000000 PUSH1 0x0 DUP3 ADD MSTORE POP JUMP JUMPDEST PUSH1 0x0 PUSH2 0x1F89 PUSH1 0x1D DUP4 PUSH2 0x1C0B JUMP JUMPDEST SWAP2 POP PUSH2 0x1F94 DUP3 PUSH2 0x1F53 JUMP JUMPDEST PUSH1 0x20 DUP3 ADD SWAP1 POP SWAP2 SWAP1 POP JUMP JUMPDEST PUSH1 0x0 PUSH1 0x20 DUP3 ADD SWAP1 POP DUP2 DUP2 SUB PUSH1 0x0 DUP4 ADD MSTORE PUSH2 0x1FB8 DUP2 PUSH2 0x1F7C JUMP JUMPDEST SWAP1 POP SWAP2 SWAP1 POP JUMP JUMPDEST PUSH32 0x496E76616C696420726563656976657220616464726573730000000000000000 PUSH1 0x0 DUP3 ADD MSTORE POP JUMP JUMPDEST PUSH1 0x0 PUSH2 0x1FF5 PUSH1 0x18 DUP4 PUSH2 0x1C0B JUMP JUMPDEST SWAP2 POP PUSH2 0x2000 DUP3 PUSH2 0x1FBF JUMP JUMPDEST PUSH1 0x20 DUP3 ADD SWAP1 POP SWAP2 SWAP1 POP JUMP JUMPDEST PUSH1 0x0 PUSH1 0x20 DUP3 ADD SWAP1 POP DUP2 DUP2 SUB PUSH1 0x0 DUP4 ADD MSTORE PUSH2 0x2024 DUP2 PUSH2 0x1FE8 JUMP JUMPDEST SWAP1 POP SWAP2 SWAP1 POP JUMP JUMPDEST PUSH32 0x496E76616C69642073656E646572206164647265737300000000000000000000 PUSH1 0x0 DUP3 ADD MSTORE POP JUMP JUMPDEST PUSH1 0x0 PUSH2 0x2061 PUSH1 0x16 DUP4 PUSH2 0x1C0B JUMP JUMPDEST SWAP2 POP PUSH2 0x206C DUP3 PUSH2 0x202B JUMP JUMPDEST PUSH1 0x20 DUP3 ADD SWAP1 POP SWAP2 SWAP1 POP JUMP JUMPDEST PUSH1 0x0 PUSH1 0x20 DUP3 ADD SWAP1 POP DUP2 DUP2 SUB PUSH1 0x0 DUP4 ADD MSTORE PUSH2 0x2090 DUP2 PUSH2 0x2054 JUMP JUMPDEST SWAP1 POP SWAP2 SWAP1 POP JUMP JUMPDEST PUSH32 0x4E6F6E636520616C726561647920757365640000000000000000000000000000 PUSH1 0x0 DUP3 ADD MSTORE POP JUMP JUMPDEST PUSH1 0x0 PUSH2 0x20CD PUSH1 0x12 DUP4 PUSH2 0x1C0B JUMP JUMPDEST SWAP2 POP PUSH2 0x20D8 DUP3 PUSH2 0x2097 JUMP JUMPDEST PUSH1 0x20 DUP3 ADD SWAP1 POP SWAP2 SWAP1 POP JUMP JUMPDEST PUSH1 0x0 PUSH1 0x20 DUP3 ADD SWAP1 POP DUP2 DUP2 SUB PUSH1 0x0 DUP4 ADD MSTORE PUSH2 0x20FC DUP2 PUSH2 0x20C0 JUMP JUMPDEST SWAP1 POP SWAP2 SWAP1 POP JUMP JUMPDEST PUSH32 0x496E76616C6964207369676E6174757265206F662073656E6465720000000000 PUSH1 0x0 DUP3 ADD MSTORE POP JUMP JUMPDEST PUSH1 0x0 PUSH2 0x2139 PUSH1 0x1B DUP4 PUSH2 0x1C0B JUMP JUMPDEST SWAP2 POP PUSH2 0x2144 DUP3 PUSH2 0x2103 JUMP JUMPDEST PUSH1 0x20 DUP3 ADD SWAP1 POP SWAP2 SWAP1 POP JUMP JUMPDEST PUSH1 0x0 PUSH1 0x20 DUP3 ADD SWAP1 POP DUP2 DUP2 SUB PUSH1 0x0 DUP4 ADD MSTORE PUSH2 0x2168 DUP2 PUSH2 0x212C JUMP JUMPDEST SWAP1 POP SWAP2 SWAP1 POP JUMP JUMPDEST PUSH32 0x496E76616C6964207369676E6174757265206F66207265636569766572000000 PUSH1 0x0 DUP3 ADD MSTORE POP JUMP JUMPDEST PUSH1 0x0 PUSH2 0x21A5 PUSH1 0x1D DUP4 PUSH2 0x1C0B JUMP JUMPDEST SWAP2 POP PUSH2 0x21B0 DUP3 PUSH2 0x216F JUMP JUMPDEST PUSH1 0x20 DUP3 ADD SWAP1 POP SWAP2 SWAP1 POP JUMP JUMPDEST PUSH1 0x0 PUSH1 0x20 DUP3 ADD SWAP1 POP DUP2 DUP2 SUB PUSH1 0x0 DUP4 ADD MSTORE PUSH2 0x21D4 DUP2 PUSH2 0x2198 JUMP JUMPDEST SWAP1 POP SWAP2 SWAP1 POP JUMP JUMPDEST PUSH1 0x0 PUSH1 0x60 DUP3 ADD SWAP1 POP PUSH2 0x21F0 PUSH1 0x0 DUP4 ADD DUP7 PUSH2 0x1C8E JUMP JUMPDEST PUSH2 0x21FD PUSH1 0x20 DUP4 ADD DUP6 PUSH2 0x1C8E JUMP JUMPDEST PUSH2 0x220A PUSH1 0x40 DUP4 ADD DUP5 PUSH2 0x1C7F JUMP JUMPDEST SWAP5 SWAP4 POP POP POP POP JUMP JUMPDEST PUSH2 0x221B DUP2 PUSH2 0x1B8F JUMP JUMPDEST DUP2 EQ PUSH2 0x2226 JUMPI PUSH1 0x0 DUP1 REVERT JUMPDEST POP JUMP JUMPDEST PUSH1 0x0 DUP2 MLOAD SWAP1 POP PUSH2 0x2238 DUP2 PUSH2 0x2212 JUMP JUMPDEST SWAP3 SWAP2 POP POP JUMP JUMPDEST PUSH1 0x0 PUSH1 0x20 DUP3 DUP5 SUB SLT ISZERO PUSH2 0x2254 JUMPI PUSH2 0x2253 PUSH2 0x175D JUMP JUMPDEST JUMPDEST PUSH1 0x0 PUSH2 0x2262 DUP5 DUP3 DUP6 ADD PUSH2 0x2229 JUMP JUMPDEST SWAP2 POP POP SWAP3 SWAP2 POP POP JUMP JUMPDEST PUSH32 0x546F6B656E207472616E73666572206661696C65640000000000000000000000 PUSH1 0x0 DUP3 ADD MSTORE POP JUMP JUMPDEST PUSH1 0x0 PUSH2 0x22A1 PUSH1 0x15 DUP4 PUSH2 0x1C0B JUMP JUMPDEST SWAP2 POP PUSH2 0x22AC DUP3 PUSH2 0x226B JUMP JUMPDEST PUSH1 0x20 DUP3 ADD SWAP1 POP SWAP2 SWAP1 POP JUMP JUMPDEST PUSH1 0x0 PUSH1 0x20 DUP3 ADD SWAP1 POP DUP2 DUP2 SUB PUSH1 0x0 DUP4 ADD MSTORE PUSH2 0x22D0 DUP2 PUSH2 0x2294 JUMP JUMPDEST SWAP1 POP SWAP2 SWAP1 POP JUMP JUMPDEST PUSH2 0x22E0 DUP2 PUSH2 0x1DF8 JUMP JUMPDEST DUP3 MSTORE POP POP JUMP JUMPDEST PUSH1 0x0 PUSH1 0xE0 DUP3 ADD SWAP1 POP PUSH2 0x22FB PUSH1 0x0 DUP4 ADD DUP11 PUSH2 0x1C8E JUMP JUMPDEST PUSH2 0x2308 PUSH1 0x20 DUP4 ADD DUP10 PUSH2 0x1C8E JUMP JUMPDEST PUSH2 0x2315 PUSH1 0x40 DUP4 ADD DUP9 PUSH2 0x1C7F JUMP JUMPDEST PUSH2 0x2322 PUSH1 0x60 DUP4 ADD DUP8 PUSH2 0x1C7F JUMP JUMPDEST PUSH2 0x232F PUSH1 0x80 DUP4 ADD DUP7 PUSH2 0x22D7 JUMP JUMPDEST PUSH2 0x233C PUSH1 0xA0 DUP4 ADD DUP6 PUSH2 0x1CA7 JUMP JUMPDEST PUSH2 0x2349 PUSH1 0xC0 DUP4 ADD DUP5 PUSH2 0x1CA7 JUMP JUMPDEST SWAP9 SWAP8 POP POP POP POP POP POP POP POP JUMP JUMPDEST PUSH1 0x0 PUSH1 0xC0 DUP3 ADD SWAP1 POP PUSH2 0x236A PUSH1 0x0 DUP4 ADD DUP10 PUSH2 0x1CA7 JUMP JUMPDEST PUSH2 0x2377 PUSH1 0x20 DUP4 ADD DUP9 PUSH2 0x1C7F JUMP JUMPDEST PUSH2 0x2384 PUSH1 0x40 DUP4 ADD DUP8 PUSH2 0x1C8E JUMP JUMPDEST PUSH2 0x2391 PUSH1 0x60 DUP4 ADD DUP7 PUSH2 0x1C8E JUMP JUMPDEST PUSH2 0x239E PUSH1 0x80 DUP4 ADD DUP6 PUSH2 0x1C7F JUMP JUMPDEST PUSH2 0x23AB PUSH1 0xA0 DUP4 ADD DUP5 PUSH2 0x1CA7 JUMP JUMPDEST SWAP8 SWAP7 POP POP POP POP POP POP POP JUMP JUMPDEST PUSH32 0x4E487B7100000000000000000000000000000000000000000000000000000000 PUSH1 0x0 MSTORE PUSH1 0x22 PUSH1 0x4 MSTORE PUSH1 0x24 PUSH1 0x0 REVERT JUMPDEST PUSH1 0x0 PUSH1 0x2 DUP3 DIV SWAP1 POP PUSH1 0x1 DUP3 AND DUP1 PUSH2 0x23FD JUMPI PUSH1 0x7F DUP3 AND SWAP2 POP JUMPDEST PUSH1 0x20 DUP3 LT DUP2 SUB PUSH2 0x2410 JUMPI PUSH2 0x240F PUSH2 0x23B6 JUMP JUMPDEST JUMPDEST POP SWAP2 SWAP1 POP JUMP JUMPDEST PUSH32 0x4E487B7100000000000000000000000000000000000000000000000000000000 PUSH1 0x0 MSTORE PUSH1 0x21 PUSH1 0x4 MSTORE PUSH1 0x24 PUSH1 0x0 REVERT JUMPDEST PUSH1 0x0 PUSH1 0x20 DUP3 ADD SWAP1 POP PUSH2 0x245A PUSH1 0x0 DUP4 ADD DUP5 PUSH2 0x1C7F JUMP JUMPDEST SWAP3 SWAP2 POP POP JUMP JUMPDEST PUSH1 0x0 PUSH1 0x20 DUP3 ADD SWAP1 POP PUSH2 0x2475 PUSH1 0x0 DUP4 ADD DUP5 PUSH2 0x1CA7 JUMP JUMPDEST SWAP3 SWAP2 POP POP JUMP JUMPDEST PUSH1 0x0 PUSH1 0xA0 DUP3 ADD SWAP1 POP PUSH2 0x2490 PUSH1 0x0 DUP4 ADD DUP9 PUSH2 0x1CA7 JUMP JUMPDEST PUSH2 0x249D PUSH1 0x20 DUP4 ADD DUP8 PUSH2 0x1CA7 JUMP JUMPDEST PUSH2 0x24AA PUSH1 0x40 DUP4 ADD DUP7 PUSH2 0x1CA7 JUMP JUMPDEST PUSH2 0x24B7 PUSH1 0x60 DUP4 ADD DUP6 PUSH2 0x1C7F JUMP JUMPDEST PUSH2 0x24C4 PUSH1 0x80 DUP4 ADD DUP5 PUSH2 0x1C8E JUMP JUMPDEST SWAP7 SWAP6 POP POP POP POP POP POP JUMP JUMPDEST PUSH1 0x0 PUSH1 0x80 DUP3 ADD SWAP1 POP PUSH2 0x24E3 PUSH1 0x0 DUP4 ADD DUP8 PUSH2 0x1CA7 JUMP JUMPDEST PUSH2 0x24F0 PUSH1 0x20 DUP4 ADD DUP7 PUSH2 0x22D7 JUMP JUMPDEST PUSH2 0x24FD PUSH1 0x40 DUP4 ADD DUP6 PUSH2 0x1CA7 JUMP JUMPDEST PUSH2 0x250A PUSH1 0x60 DUP4 ADD DUP5 PUSH2 0x1CA7 JUMP JUMPDEST SWAP6 SWAP5 POP POP POP POP POP JUMP INVALID LOG2 PUSH5 0x6970667358 0x22 SLT KECCAK256 BLOBHASH DUP5 MLOAD 0xC7 0xAC SWAP6 0xAD SWAP4 PC PUSH24 0xC77B833EDECD980528EFE8E7A29406F56300860E59AF6473 PUSH16 0x6C634300081800330000000000000000 "
        },
        "methodIdentifiers": {
          "eip712Domain()": "84b0196e",
          "nonces(address,uint256)": "502e1a16",
          "transferFromWithPermit(bytes,bytes,uint256,(uint256,address,address,uint256,address,string),uint8,bytes32,bytes32)": "8d1f5c00",
          "transferNative(bytes,bytes,(uint256,address,address,uint256,address,string))": "89b0a39e",
          "transferTokens(bytes,bytes,(uint256,address,address,uint256,address,string))": "4f117f8f"
        }
      }
    }
  }
}